{
  "_format": "hh-sol-artifact-1",
  "contractName": "MyEpicNFT",
  "sourceName": "contracts/Nft.sol",
  "abi": [
    {
      "inputs": [],
      "stateMutability": "nonpayable",
      "type": "constructor"
    },
    {
      "anonymous": false,
      "inputs": [
        {
          "indexed": true,
          "internalType": "address",
          "name": "owner",
          "type": "address"
        },
        {
          "indexed": true,
          "internalType": "address",
          "name": "approved",
          "type": "address"
        },
        {
          "indexed": true,
          "internalType": "uint256",
          "name": "tokenId",
          "type": "uint256"
        }
      ],
      "name": "Approval",
      "type": "event"
    },
    {
      "anonymous": false,
      "inputs": [
        {
          "indexed": true,
          "internalType": "address",
          "name": "owner",
          "type": "address"
        },
        {
          "indexed": true,
          "internalType": "address",
          "name": "operator",
          "type": "address"
        },
        {
          "indexed": false,
          "internalType": "bool",
          "name": "approved",
          "type": "bool"
        }
      ],
      "name": "ApprovalForAll",
      "type": "event"
    },
    {
      "anonymous": false,
      "inputs": [
        {
          "indexed": false,
          "internalType": "address",
          "name": "sender",
          "type": "address"
        },
        {
          "indexed": false,
          "internalType": "uint256",
          "name": "tokenId",
          "type": "uint256"
        }
      ],
      "name": "NewEpicNFTMinted",
      "type": "event"
    },
    {
      "anonymous": false,
      "inputs": [
        {
          "indexed": true,
          "internalType": "address",
          "name": "from",
          "type": "address"
        },
        {
          "indexed": true,
          "internalType": "address",
          "name": "to",
          "type": "address"
        },
        {
          "indexed": true,
          "internalType": "uint256",
          "name": "tokenId",
          "type": "uint256"
        }
      ],
      "name": "Transfer",
      "type": "event"
    },
    {
      "inputs": [
        {
          "internalType": "address",
          "name": "to",
          "type": "address"
        },
        {
          "internalType": "uint256",
          "name": "tokenId",
          "type": "uint256"
        }
      ],
      "name": "approve",
      "outputs": [],
      "stateMutability": "nonpayable",
      "type": "function"
    },
    {
      "inputs": [
        {
          "internalType": "address",
          "name": "owner",
          "type": "address"
        }
      ],
      "name": "balanceOf",
      "outputs": [
        {
          "internalType": "uint256",
          "name": "",
          "type": "uint256"
        }
      ],
      "stateMutability": "view",
      "type": "function"
    },
    {
      "inputs": [
        {
          "internalType": "uint256",
          "name": "tokenId",
          "type": "uint256"
        }
      ],
      "name": "getApproved",
      "outputs": [
        {
          "internalType": "address",
          "name": "",
          "type": "address"
        }
      ],
      "stateMutability": "view",
      "type": "function"
    },
    {
      "inputs": [],
      "name": "getMessageSender",
      "outputs": [
        {
          "internalType": "address",
          "name": "",
          "type": "address"
        }
      ],
      "stateMutability": "view",
      "type": "function"
    },
    {
      "inputs": [
        {
          "internalType": "address",
          "name": "owner",
          "type": "address"
        },
        {
          "internalType": "address",
          "name": "operator",
          "type": "address"
        }
      ],
      "name": "isApprovedForAll",
      "outputs": [
        {
          "internalType": "bool",
          "name": "",
          "type": "bool"
        }
      ],
      "stateMutability": "view",
      "type": "function"
    },
    {
      "inputs": [],
      "name": "makeAnEpicNFT",
      "outputs": [],
      "stateMutability": "nonpayable",
      "type": "function"
    },
    {
      "inputs": [],
      "name": "name",
      "outputs": [
        {
          "internalType": "string",
          "name": "",
          "type": "string"
        }
      ],
      "stateMutability": "view",
      "type": "function"
    },
    {
      "inputs": [
        {
          "internalType": "uint256",
          "name": "tokenId",
          "type": "uint256"
        }
      ],
      "name": "ownerOf",
      "outputs": [
        {
          "internalType": "address",
          "name": "",
          "type": "address"
        }
      ],
      "stateMutability": "view",
      "type": "function"
    },
    {
      "inputs": [
        {
          "internalType": "address",
          "name": "from",
          "type": "address"
        },
        {
          "internalType": "address",
          "name": "to",
          "type": "address"
        },
        {
          "internalType": "uint256",
          "name": "tokenId",
          "type": "uint256"
        }
      ],
      "name": "safeTransferFrom",
      "outputs": [],
      "stateMutability": "nonpayable",
      "type": "function"
    },
    {
      "inputs": [
        {
          "internalType": "address",
          "name": "from",
          "type": "address"
        },
        {
          "internalType": "address",
          "name": "to",
          "type": "address"
        },
        {
          "internalType": "uint256",
          "name": "tokenId",
          "type": "uint256"
        },
        {
          "internalType": "bytes",
          "name": "_data",
          "type": "bytes"
        }
      ],
      "name": "safeTransferFrom",
      "outputs": [],
      "stateMutability": "nonpayable",
      "type": "function"
    },
    {
      "inputs": [
        {
          "internalType": "address",
          "name": "operator",
          "type": "address"
        },
        {
          "internalType": "bool",
          "name": "approved",
          "type": "bool"
        }
      ],
      "name": "setApprovalForAll",
      "outputs": [],
      "stateMutability": "nonpayable",
      "type": "function"
    },
    {
      "inputs": [
        {
          "internalType": "bytes4",
          "name": "interfaceId",
          "type": "bytes4"
        }
      ],
      "name": "supportsInterface",
      "outputs": [
        {
          "internalType": "bool",
          "name": "",
          "type": "bool"
        }
      ],
      "stateMutability": "view",
      "type": "function"
    },
    {
      "inputs": [],
      "name": "symbol",
      "outputs": [
        {
          "internalType": "string",
          "name": "",
          "type": "string"
        }
      ],
      "stateMutability": "view",
      "type": "function"
    },
    {
      "inputs": [
        {
          "internalType": "uint256",
          "name": "tokenId",
          "type": "uint256"
        }
      ],
      "name": "tokenURI",
      "outputs": [
        {
          "internalType": "string",
          "name": "",
          "type": "string"
        }
      ],
      "stateMutability": "view",
      "type": "function"
    },
    {
      "inputs": [
        {
          "internalType": "address",
          "name": "from",
          "type": "address"
        },
        {
          "internalType": "address",
          "name": "to",
          "type": "address"
        },
        {
          "internalType": "uint256",
          "name": "tokenId",
          "type": "uint256"
        }
      ],
      "name": "transferFrom",
      "outputs": [],
      "stateMutability": "nonpayable",
      "type": "function"
    }
  ],
  "bytecode": "0x60806040523480156200001157600080fd5b506040518060400160405280600681526020017f4d617263757300000000000000000000000000000000000000000000000000008152506040518060400160405280600881526020017f4d61726375734654000000000000000000000000000000000000000000000000815250816000908051906020019062000096929190620001cf565b508060019080519060200190620000af929190620001cf565b505050620000fd6040518060400160405280600f81526020017f54686973206973206d79206e66742100000000000000000000000000000000008152506200010360201b62000bbd1760201c565b620003ac565b620001a3816040516024016200011a9190620002c0565b6040516020818303038152906040527f41304fac000000000000000000000000000000000000000000000000000000007bffffffffffffffffffffffffffffffffffffffffffffffffffffffff19166020820180517bffffffffffffffffffffffffffffffffffffffffffffffffffffffff8381831617835250505050620001a660201b60201c565b50565b60008151905060006a636f6e736f6c652e6c6f679050602083016000808483855afa5050505050565b828054620001dd9062000336565b90600052602060002090601f0160209004810192826200020157600085556200024d565b82601f106200021c57805160ff19168380011785556200024d565b828001600101855582156200024d579182015b828111156200024c5782518255916020019190600101906200022f565b5b5090506200025c919062000260565b5090565b5b808211156200027b57600081600090555060010162000261565b5090565b60006200028c82620002e4565b620002988185620002ef565b9350620002aa81856020860162000300565b620002b5816200039b565b840191505092915050565b60006020820190508181036000830152620002dc81846200027f565b905092915050565b600081519050919050565b600082825260208201905092915050565b60005b838110156200032057808201518184015260208101905062000303565b8381111562000330576000848401525b50505050565b600060028204905060018216806200034f57607f821691505b602082108114156200036657620003656200036c565b5b50919050565b7f4e487b7100000000000000000000000000000000000000000000000000000000600052602260045260246000fd5b6000601f19601f8301169050919050565b612f5b80620003bc6000396000f3fe608060405234801561001057600080fd5b50600436106100f55760003560e01c806370a0823111610097578063b88d4fde11610066578063b88d4fde14610284578063c87b56dd146102a0578063de9d132f146102d0578063e985e9c5146102da576100f5565b806370a08231146101fc57806376167a891461022c57806395d89b411461024a578063a22cb46514610268576100f5565b8063095ea7b3116100d3578063095ea7b31461017857806323b872dd1461019457806342842e0e146101b05780636352211e146101cc576100f5565b806301ffc9a7146100fa57806306fdde031461012a578063081812fc14610148575b600080fd5b610114600480360381019061010f9190611f7d565b61030a565b60405161012191906123ac565b60405180910390f35b6101326103ec565b60405161013f91906123c7565b60405180910390f35b610162600480360381019061015d9190611fcf565b61047e565b60405161016f919061231c565b60405180910390f35b610192600480360381019061018d9190611f41565b610503565b005b6101ae60048036038101906101a99190611e3b565b61061b565b005b6101ca60048036038101906101c59190611e3b565b61067b565b005b6101e660048036038101906101e19190611fcf565b61069b565b6040516101f3919061231c565b60405180910390f35b61021660048036038101906102119190611dd6565b61074d565b6040516102239190612657565b60405180910390f35b610234610805565b604051610241919061231c565b60405180910390f35b61025261080d565b60405161025f91906123c7565b60405180910390f35b610282600480360381019061027d9190611f05565b61089f565b005b61029e60048036038101906102999190611e8a565b6108b5565b005b6102ba60048036038101906102b59190611fcf565b610917565b6040516102c791906123c7565b60405180910390f35b6102d8610a69565b005b6102f460048036038101906102ef9190611dff565b610b29565b60405161030191906123ac565b60405180910390f35b60007f80ac58cd000000000000000000000000000000000000000000000000000000007bffffffffffffffffffffffffffffffffffffffffffffffffffffffff1916827bffffffffffffffffffffffffffffffffffffffffffffffffffffffff191614806103d557507f5b5e139f000000000000000000000000000000000000000000000000000000007bffffffffffffffffffffffffffffffffffffffffffffffffffffffff1916827bffffffffffffffffffffffffffffffffffffffffffffffffffffffff1916145b806103e557506103e482610c56565b5b9050919050565b6060600080546103fb9061287c565b80601f01602080910402602001604051908101604052809291908181526020018280546104279061287c565b80156104745780601f1061044957610100808354040283529160200191610474565b820191906000526020600020905b81548152906001019060200180831161045757829003601f168201915b5050505050905090565b600061048982610cc0565b6104c8576040517f08c379a00000000000000000000000000000000000000000000000000000000081526004016104bf906125d7565b60405180910390fd5b6004600083815260200190815260200160002060009054906101000a900473ffffffffffffffffffffffffffffffffffffffff169050919050565b600061050e8261069b565b90508073ffffffffffffffffffffffffffffffffffffffff168373ffffffffffffffffffffffffffffffffffffffff16141561057f576040517f08c379a000000000000000000000000000000000000000000000000000000000815260040161057690612617565b60405180910390fd5b8073ffffffffffffffffffffffffffffffffffffffff1661059e610d2c565b73ffffffffffffffffffffffffffffffffffffffff1614806105cd57506105cc816105c7610d2c565b610b29565b5b61060c576040517f08c379a000000000000000000000000000000000000000000000000000000000815260040161060390612517565b60405180910390fd5b6106168383610d34565b505050565b61062c610626610d2c565b82610ded565b61066b576040517f08c379a000000000000000000000000000000000000000000000000000000000815260040161066290612637565b60405180910390fd5b610676838383610f1b565b505050565b610696838383604051806020016040528060008152506108b5565b505050565b6000806002600084815260200190815260200160002060009054906101000a900473ffffffffffffffffffffffffffffffffffffffff169050600073ffffffffffffffffffffffffffffffffffffffff168173ffffffffffffffffffffffffffffffffffffffff161415610744576040517f08c379a000000000000000000000000000000000000000000000000000000000815260040161073b90612557565b60405180910390fd5b80915050919050565b60008073ffffffffffffffffffffffffffffffffffffffff168273ffffffffffffffffffffffffffffffffffffffff1614156107be576040517f08c379a00000000000000000000000000000000000000000000000000000000081526004016107b590612537565b60405180910390fd5b600360008373ffffffffffffffffffffffffffffffffffffffff1673ffffffffffffffffffffffffffffffffffffffff168152602001908152602001600020549050919050565b600033905090565b60606001805461081c9061287c565b80601f01602080910402602001604051908101604052809291908181526020018280546108489061287c565b80156108955780601f1061086a57610100808354040283529160200191610895565b820191906000526020600020905b81548152906001019060200180831161087857829003601f168201915b5050505050905090565b6108b16108aa610d2c565b8383611182565b5050565b6108c66108c0610d2c565b83610ded565b610905576040517f08c379a00000000000000000000000000000000000000000000000000000000081526004016108fc90612637565b60405180910390fd5b610911848484846112ef565b50505050565b606061092282610cc0565b610961576040517f08c379a0000000000000000000000000000000000000000000000000000000008152600401610958906125b7565b60405180910390fd5b60006006600084815260200190815260200160002080546109819061287c565b80601f01602080910402602001604051908101604052809291908181526020018280546109ad9061287c565b80156109fa5780601f106109cf576101008083540402835291602001916109fa565b820191906000526020600020905b8154815290600101906020018083116109dd57829003601f168201915b505050505090506000610a0b61134b565b9050600081511415610a21578192505050610a64565b600082511115610a56578082604051602001610a3e9291906122f8565b60405160208183030381529060405292505050610a64565b610a5f84611362565b925050505b919050565b6000610a756007611409565b9050610a813382611417565b610ac0816040518060400160405280601d81526020017f68747470733a2f2f6a736f6e6b65657065722e636f6d2f622f314c4848000000815250611435565b610ae3604051806060016040528060258152602001612f016025913982336114a9565b7febb98688741ffa4c7589bf325de30cf7becb63de567842e1ccdb6cb949fdc82c3382604051610b14929190612383565b60405180910390a1610b266007611548565b50565b6000600560008473ffffffffffffffffffffffffffffffffffffffff1673ffffffffffffffffffffffffffffffffffffffff16815260200190815260200160002060008373ffffffffffffffffffffffffffffffffffffffff1673ffffffffffffffffffffffffffffffffffffffff16815260200190815260200160002060009054906101000a900460ff16905092915050565b610c5381604051602401610bd191906123c7565b6040516020818303038152906040527f41304fac000000000000000000000000000000000000000000000000000000007bffffffffffffffffffffffffffffffffffffffffffffffffffffffff19166020820180517bffffffffffffffffffffffffffffffffffffffffffffffffffffffff838183161783525050505061155e565b50565b60007f01ffc9a7000000000000000000000000000000000000000000000000000000007bffffffffffffffffffffffffffffffffffffffffffffffffffffffff1916827bffffffffffffffffffffffffffffffffffffffffffffffffffffffff1916149050919050565b60008073ffffffffffffffffffffffffffffffffffffffff166002600084815260200190815260200160002060009054906101000a900473ffffffffffffffffffffffffffffffffffffffff1673ffffffffffffffffffffffffffffffffffffffff1614159050919050565b600033905090565b816004600083815260200190815260200160002060006101000a81548173ffffffffffffffffffffffffffffffffffffffff021916908373ffffffffffffffffffffffffffffffffffffffff160217905550808273ffffffffffffffffffffffffffffffffffffffff16610da78361069b565b73ffffffffffffffffffffffffffffffffffffffff167f8c5be1e5ebec7d5bd14f71427d1e84f3dd0314c0f7b2291e5b200ac8c7c3b92560405160405180910390a45050565b6000610df882610cc0565b610e37576040517f08c379a0000000000000000000000000000000000000000000000000000000008152600401610e2e906124f7565b60405180910390fd5b6000610e428361069b565b9050610e836040518060400160405280600a81526020017f7370656e6465722025730000000000000000000000000000000000000000000081525085611587565b610e94610e8f8461047e565b611623565b8073ffffffffffffffffffffffffffffffffffffffff168473ffffffffffffffffffffffffffffffffffffffff161480610ed45750610ed38185610b29565b5b80610f1257508373ffffffffffffffffffffffffffffffffffffffff16610efa8461047e565b73ffffffffffffffffffffffffffffffffffffffff16145b91505092915050565b8273ffffffffffffffffffffffffffffffffffffffff16610f3b8261069b565b73ffffffffffffffffffffffffffffffffffffffff1614610f91576040517f08c379a0000000000000000000000000000000000000000000000000000000008152600401610f8890612477565b60405180910390fd5b600073ffffffffffffffffffffffffffffffffffffffff168273ffffffffffffffffffffffffffffffffffffffff161415611001576040517f08c379a0000000000000000000000000000000000000000000000000000000008152600401610ff8906124b7565b60405180910390fd5b61100c8383836116bc565b611017600082610d34565b6001600360008573ffffffffffffffffffffffffffffffffffffffff1673ffffffffffffffffffffffffffffffffffffffff16815260200190815260200160002060008282546110679190612792565b925050819055506001600360008473ffffffffffffffffffffffffffffffffffffffff1673ffffffffffffffffffffffffffffffffffffffff16815260200190815260200160002060008282546110be919061270b565b92505081905550816002600083815260200190815260200160002060006101000a81548173ffffffffffffffffffffffffffffffffffffffff021916908373ffffffffffffffffffffffffffffffffffffffff160217905550808273ffffffffffffffffffffffffffffffffffffffff168473ffffffffffffffffffffffffffffffffffffffff167fddf252ad1be2c89b69c2b068fc378daa952ba7f163c4a11628f55a4df523b3ef60405160405180910390a461117d8383836116c1565b505050565b8173ffffffffffffffffffffffffffffffffffffffff168373ffffffffffffffffffffffffffffffffffffffff1614156111f1576040517f08c379a00000000000000000000000000000000000000000000000000000000081526004016111e8906124d7565b60405180910390fd5b80600560008573ffffffffffffffffffffffffffffffffffffffff1673ffffffffffffffffffffffffffffffffffffffff16815260200190815260200160002060008473ffffffffffffffffffffffffffffffffffffffff1673ffffffffffffffffffffffffffffffffffffffff16815260200190815260200160002060006101000a81548160ff0219169083151502179055508173ffffffffffffffffffffffffffffffffffffffff168373ffffffffffffffffffffffffffffffffffffffff167f17307eab39ab6107e8899845ad3d59bd9653f200f220920489ca2b5937696c31836040516112e291906123ac565b60405180910390a3505050565b6112fa848484610f1b565b611306848484846116c6565b611345576040517f08c379a000000000000000000000000000000000000000000000000000000000815260040161133c90612457565b60405180910390fd5b50505050565b606060405180602001604052806000815250905090565b606061136d82610cc0565b6113ac576040517f08c379a00000000000000000000000000000000000000000000000000000000081526004016113a3906125f7565b60405180910390fd5b60006113b661134b565b905060008151116113d65760405180602001604052806000815250611401565b806113e08461185d565b6040516020016113f19291906122f8565b6040516020818303038152906040525b915050919050565b600081600001549050919050565b611431828260405180602001604052806000815250611a0a565b5050565b61143e82610cc0565b61147d576040517f08c379a000000000000000000000000000000000000000000000000000000000815260040161147490612577565b60405180910390fd5b806006600084815260200190815260200160002090805190602001906114a4929190611c62565b505050565b6115438383836040516024016114c193929190612419565b6040516020818303038152906040527fe3849f79000000000000000000000000000000000000000000000000000000007bffffffffffffffffffffffffffffffffffffffffffffffffffffffff19166020820180517bffffffffffffffffffffffffffffffffffffffffffffffffffffffff838183161783525050505061155e565b505050565b6001816000016000828254019250508190555050565b60008151905060006a636f6e736f6c652e6c6f679050602083016000808483855afa5050505050565b61161f828260405160240161159d9291906123e9565b6040516020818303038152906040527f319af333000000000000000000000000000000000000000000000000000000007bffffffffffffffffffffffffffffffffffffffffffffffffffffffff19166020820180517bffffffffffffffffffffffffffffffffffffffffffffffffffffffff838183161783525050505061155e565b5050565b6116b981604051602401611637919061231c565b6040516020818303038152906040527f2c2ecbc2000000000000000000000000000000000000000000000000000000007bffffffffffffffffffffffffffffffffffffffffffffffffffffffff19166020820180517bffffffffffffffffffffffffffffffffffffffffffffffffffffffff838183161783525050505061155e565b50565b505050565b505050565b60006116e78473ffffffffffffffffffffffffffffffffffffffff16611a65565b15611850578373ffffffffffffffffffffffffffffffffffffffff1663150b7a02611710610d2c565b8786866040518563ffffffff1660e01b81526004016117329493929190612337565b602060405180830381600087803b15801561174c57600080fd5b505af192505050801561177d57506040513d601f19601f8201168201806040525081019061177a9190611fa6565b60015b611800573d80600081146117ad576040519150601f19603f3d011682016040523d82523d6000602084013e6117b2565b606091505b506000815114156117f8576040517f08c379a00000000000000000000000000000000000000000000000000000000081526004016117ef90612457565b60405180910390fd5b805181602001fd5b63150b7a0260e01b7bffffffffffffffffffffffffffffffffffffffffffffffffffffffff1916817bffffffffffffffffffffffffffffffffffffffffffffffffffffffff191614915050611855565b600190505b949350505050565b606060008214156118a5576040518060400160405280600181526020017f30000000000000000000000000000000000000000000000000000000000000008152509050611a05565b600082905060005b600082146118d75780806118c0906128df565b915050600a826118d09190612761565b91506118ad565b60008167ffffffffffffffff811115611919577f4e487b7100000000000000000000000000000000000000000000000000000000600052604160045260246000fd5b6040519080825280601f01601f19166020018201604052801561194b5781602001600182028036833780820191505090505b5090505b600085146119fe576001826119649190612792565b9150600a856119739190612928565b603061197f919061270b565b60f81b8183815181106119bb577f4e487b7100000000000000000000000000000000000000000000000000000000600052603260045260246000fd5b60200101907effffffffffffffffffffffffffffffffffffffffffffffffffffffffffffff1916908160001a905350600a856119f79190612761565b945061194f565b8093505050505b919050565b611a148383611a88565b611a2160008484846116c6565b611a60576040517f08c379a0000000000000000000000000000000000000000000000000000000008152600401611a5790612457565b60405180910390fd5b505050565b6000808273ffffffffffffffffffffffffffffffffffffffff163b119050919050565b600073ffffffffffffffffffffffffffffffffffffffff168273ffffffffffffffffffffffffffffffffffffffff161415611af8576040517f08c379a0000000000000000000000000000000000000000000000000000000008152600401611aef90612597565b60405180910390fd5b611b0181610cc0565b15611b41576040517f08c379a0000000000000000000000000000000000000000000000000000000008152600401611b3890612497565b60405180910390fd5b611b4d600083836116bc565b6001600360008473ffffffffffffffffffffffffffffffffffffffff1673ffffffffffffffffffffffffffffffffffffffff1681526020019081526020016000206000828254611b9d919061270b565b92505081905550816002600083815260200190815260200160002060006101000a81548173ffffffffffffffffffffffffffffffffffffffff021916908373ffffffffffffffffffffffffffffffffffffffff160217905550808273ffffffffffffffffffffffffffffffffffffffff16600073ffffffffffffffffffffffffffffffffffffffff167fddf252ad1be2c89b69c2b068fc378daa952ba7f163c4a11628f55a4df523b3ef60405160405180910390a4611c5e600083836116c1565b5050565b828054611c6e9061287c565b90600052602060002090601f016020900481019282611c905760008555611cd7565b82601f10611ca957805160ff1916838001178555611cd7565b82800160010185558215611cd7579182015b82811115611cd6578251825591602001919060010190611cbb565b5b509050611ce49190611ce8565b5090565b5b80821115611d01576000816000905550600101611ce9565b5090565b6000611d18611d1384612697565b612672565b905082815260208101848484011115611d3057600080fd5b611d3b84828561283a565b509392505050565b600081359050611d5281612ea4565b92915050565b600081359050611d6781612ebb565b92915050565b600081359050611d7c81612ed2565b92915050565b600081519050611d9181612ed2565b92915050565b600082601f830112611da857600080fd5b8135611db8848260208601611d05565b91505092915050565b600081359050611dd081612ee9565b92915050565b600060208284031215611de857600080fd5b6000611df684828501611d43565b91505092915050565b60008060408385031215611e1257600080fd5b6000611e2085828601611d43565b9250506020611e3185828601611d43565b9150509250929050565b600080600060608486031215611e5057600080fd5b6000611e5e86828701611d43565b9350506020611e6f86828701611d43565b9250506040611e8086828701611dc1565b9150509250925092565b60008060008060808587031215611ea057600080fd5b6000611eae87828801611d43565b9450506020611ebf87828801611d43565b9350506040611ed087828801611dc1565b925050606085013567ffffffffffffffff811115611eed57600080fd5b611ef987828801611d97565b91505092959194509250565b60008060408385031215611f1857600080fd5b6000611f2685828601611d43565b9250506020611f3785828601611d58565b9150509250929050565b60008060408385031215611f5457600080fd5b6000611f6285828601611d43565b9250506020611f7385828601611dc1565b9150509250929050565b600060208284031215611f8f57600080fd5b6000611f9d84828501611d6d565b91505092915050565b600060208284031215611fb857600080fd5b6000611fc684828501611d82565b91505092915050565b600060208284031215611fe157600080fd5b6000611fef84828501611dc1565b91505092915050565b612001816127c6565b82525050565b612010816127d8565b82525050565b6000612021826126c8565b61202b81856126de565b935061203b818560208601612849565b61204481612a15565b840191505092915050565b600061205a826126d3565b61206481856126ef565b9350612074818560208601612849565b61207d81612a15565b840191505092915050565b6000612093826126d3565b61209d8185612700565b93506120ad818560208601612849565b80840191505092915050565b60006120c66032836126ef565b91506120d182612a26565b604082019050919050565b60006120e96025836126ef565b91506120f482612a75565b604082019050919050565b600061210c601c836126ef565b915061211782612ac4565b602082019050919050565b600061212f6024836126ef565b915061213a82612aed565b604082019050919050565b60006121526019836126ef565b915061215d82612b3c565b602082019050919050565b6000612175602c836126ef565b915061218082612b65565b604082019050919050565b60006121986038836126ef565b91506121a382612bb4565b604082019050919050565b60006121bb602a836126ef565b91506121c682612c03565b604082019050919050565b60006121de6029836126ef565b91506121e982612c52565b604082019050919050565b6000612201602e836126ef565b915061220c82612ca1565b604082019050919050565b60006122246020836126ef565b915061222f82612cf0565b602082019050919050565b60006122476031836126ef565b915061225282612d19565b604082019050919050565b600061226a602c836126ef565b915061227582612d68565b604082019050919050565b600061228d602f836126ef565b915061229882612db7565b604082019050919050565b60006122b06021836126ef565b91506122bb82612e06565b604082019050919050565b60006122d36031836126ef565b91506122de82612e55565b604082019050919050565b6122f281612830565b82525050565b60006123048285612088565b91506123108284612088565b91508190509392505050565b60006020820190506123316000830184611ff8565b92915050565b600060808201905061234c6000830187611ff8565b6123596020830186611ff8565b61236660408301856122e9565b81810360608301526123788184612016565b905095945050505050565b60006040820190506123986000830185611ff8565b6123a560208301846122e9565b9392505050565b60006020820190506123c16000830184612007565b92915050565b600060208201905081810360008301526123e1818461204f565b905092915050565b60006040820190508181036000830152612403818561204f565b90506124126020830184611ff8565b9392505050565b60006060820190508181036000830152612433818661204f565b905061244260208301856122e9565b61244f6040830184611ff8565b949350505050565b60006020820190508181036000830152612470816120b9565b9050919050565b60006020820190508181036000830152612490816120dc565b9050919050565b600060208201905081810360008301526124b0816120ff565b9050919050565b600060208201905081810360008301526124d081612122565b9050919050565b600060208201905081810360008301526124f081612145565b9050919050565b6000602082019050818103600083015261251081612168565b9050919050565b600060208201905081810360008301526125308161218b565b9050919050565b60006020820190508181036000830152612550816121ae565b9050919050565b60006020820190508181036000830152612570816121d1565b9050919050565b60006020820190508181036000830152612590816121f4565b9050919050565b600060208201905081810360008301526125b081612217565b9050919050565b600060208201905081810360008301526125d08161223a565b9050919050565b600060208201905081810360008301526125f08161225d565b9050919050565b6000602082019050818103600083015261261081612280565b9050919050565b60006020820190508181036000830152612630816122a3565b9050919050565b60006020820190508181036000830152612650816122c6565b9050919050565b600060208201905061266c60008301846122e9565b92915050565b600061267c61268d565b905061268882826128ae565b919050565b6000604051905090565b600067ffffffffffffffff8211156126b2576126b16129e6565b5b6126bb82612a15565b9050602081019050919050565b600081519050919050565b600081519050919050565b600082825260208201905092915050565b600082825260208201905092915050565b600081905092915050565b600061271682612830565b915061272183612830565b9250827fffffffffffffffffffffffffffffffffffffffffffffffffffffffffffffffff0382111561275657612755612959565b5b828201905092915050565b600061276c82612830565b915061277783612830565b92508261278757612786612988565b5b828204905092915050565b600061279d82612830565b91506127a883612830565b9250828210156127bb576127ba612959565b5b828203905092915050565b60006127d182612810565b9050919050565b60008115159050919050565b60007fffffffff0000000000000000000000000000000000000000000000000000000082169050919050565b600073ffffffffffffffffffffffffffffffffffffffff82169050919050565b6000819050919050565b82818337600083830152505050565b60005b8381101561286757808201518184015260208101905061284c565b83811115612876576000848401525b50505050565b6000600282049050600182168061289457607f821691505b602082108114156128a8576128a76129b7565b5b50919050565b6128b782612a15565b810181811067ffffffffffffffff821117156128d6576128d56129e6565b5b80604052505050565b60006128ea82612830565b91507fffffffffffffffffffffffffffffffffffffffffffffffffffffffffffffffff82141561291d5761291c612959565b5b600182019050919050565b600061293382612830565b915061293e83612830565b92508261294e5761294d612988565b5b828206905092915050565b7f4e487b7100000000000000000000000000000000000000000000000000000000600052601160045260246000fd5b7f4e487b7100000000000000000000000000000000000000000000000000000000600052601260045260246000fd5b7f4e487b7100000000000000000000000000000000000000000000000000000000600052602260045260246000fd5b7f4e487b7100000000000000000000000000000000000000000000000000000000600052604160045260246000fd5b6000601f19601f8301169050919050565b7f4552433732313a207472616e7366657220746f206e6f6e20455243373231526560008201527f63656976657220696d706c656d656e7465720000000000000000000000000000602082015250565b7f4552433732313a207472616e736665722066726f6d20696e636f72726563742060008201527f6f776e6572000000000000000000000000000000000000000000000000000000602082015250565b7f4552433732313a20746f6b656e20616c7265616479206d696e74656400000000600082015250565b7f4552433732313a207472616e7366657220746f20746865207a65726f2061646460008201527f7265737300000000000000000000000000000000000000000000000000000000602082015250565b7f4552433732313a20617070726f766520746f2063616c6c657200000000000000600082015250565b7f4552433732313a206f70657261746f7220717565727920666f72206e6f6e657860008201527f697374656e7420746f6b656e0000000000000000000000000000000000000000602082015250565b7f4552433732313a20617070726f76652063616c6c6572206973206e6f74206f7760008201527f6e6572206e6f7220617070726f76656420666f7220616c6c0000000000000000602082015250565b7f4552433732313a2062616c616e636520717565727920666f7220746865207a6560008201527f726f206164647265737300000000000000000000000000000000000000000000602082015250565b7f4552433732313a206f776e657220717565727920666f72206e6f6e657869737460008201527f656e7420746f6b656e0000000000000000000000000000000000000000000000602082015250565b7f45524337323155524953746f726167653a2055524920736574206f66206e6f6e60008201527f6578697374656e7420746f6b656e000000000000000000000000000000000000602082015250565b7f4552433732313a206d696e7420746f20746865207a65726f2061646472657373600082015250565b7f45524337323155524953746f726167653a2055524920717565727920666f722060008201527f6e6f6e6578697374656e7420746f6b656e000000000000000000000000000000602082015250565b7f4552433732313a20617070726f76656420717565727920666f72206e6f6e657860008201527f697374656e7420746f6b656e0000000000000000000000000000000000000000602082015250565b7f4552433732314d657461646174613a2055524920717565727920666f72206e6f60008201527f6e6578697374656e7420746f6b656e0000000000000000000000000000000000602082015250565b7f4552433732313a20617070726f76616c20746f2063757272656e74206f776e6560008201527f7200000000000000000000000000000000000000000000000000000000000000602082015250565b7f4552433732313a207472616e736665722063616c6c6572206973206e6f74206f60008201527f776e6572206e6f7220617070726f766564000000000000000000000000000000602082015250565b612ead816127c6565b8114612eb857600080fd5b50565b612ec4816127d8565b8114612ecf57600080fd5b50565b612edb816127e4565b8114612ee657600080fd5b50565b612ef281612830565b8114612efd57600080fd5b5056fe416e204e465420772f20494420257320686173206265656e206d696e74656420746f202573a26469706673582212203c3db2b4e49135f251251109df57cee64c741a1f59b6cfdc14a54ea2cd511be164736f6c63430008040033",
  "linkReferences": {},
  "deployedLinkReferences": {}
}