{
  "_format": "hh-sol-artifact-1",
  "contractName": "MarcusNft",
  "sourceName": "contracts/Nft.sol",
  "abi": [
    {
      "inputs": [],
      "stateMutability": "nonpayable",
      "type": "constructor"
    },
    {
      "anonymous": false,
      "inputs": [
        {
          "indexed": true,
          "internalType": "address",
          "name": "owner",
          "type": "address"
        },
        {
          "indexed": true,
          "internalType": "address",
          "name": "approved",
          "type": "address"
        },
        {
          "indexed": true,
          "internalType": "uint256",
          "name": "tokenId",
          "type": "uint256"
        }
      ],
      "name": "Approval",
      "type": "event"
    },
    {
      "anonymous": false,
      "inputs": [
        {
          "indexed": true,
          "internalType": "address",
          "name": "owner",
          "type": "address"
        },
        {
          "indexed": true,
          "internalType": "address",
          "name": "operator",
          "type": "address"
        },
        {
          "indexed": false,
          "internalType": "bool",
          "name": "approved",
          "type": "bool"
        }
      ],
      "name": "ApprovalForAll",
      "type": "event"
    },
    {
      "anonymous": false,
      "inputs": [
        {
          "indexed": true,
          "internalType": "address",
          "name": "from",
          "type": "address"
        },
        {
          "indexed": true,
          "internalType": "address",
          "name": "to",
          "type": "address"
        },
        {
          "indexed": true,
          "internalType": "uint256",
          "name": "tokenId",
          "type": "uint256"
        }
      ],
      "name": "Transfer",
      "type": "event"
    },
    {
      "inputs": [
        {
          "internalType": "address",
          "name": "to",
          "type": "address"
        },
        {
          "internalType": "uint256",
          "name": "tokenId",
          "type": "uint256"
        }
      ],
      "name": "approve",
      "outputs": [],
      "stateMutability": "nonpayable",
      "type": "function"
    },
    {
      "inputs": [
        {
          "internalType": "address",
          "name": "owner",
          "type": "address"
        }
      ],
      "name": "balanceOf",
      "outputs": [
        {
          "internalType": "uint256",
          "name": "",
          "type": "uint256"
        }
      ],
      "stateMutability": "view",
      "type": "function"
    },
    {
      "inputs": [
        {
          "internalType": "uint256",
          "name": "tokenId",
          "type": "uint256"
        }
      ],
      "name": "getApproved",
      "outputs": [
        {
          "internalType": "address",
          "name": "",
          "type": "address"
        }
      ],
      "stateMutability": "view",
      "type": "function"
    },
    {
      "inputs": [],
      "name": "getMessageSender",
      "outputs": [
        {
          "internalType": "address",
          "name": "",
          "type": "address"
        }
      ],
      "stateMutability": "view",
      "type": "function"
    },
    {
      "inputs": [
        {
          "internalType": "address",
          "name": "owner",
          "type": "address"
        },
        {
          "internalType": "address",
          "name": "operator",
          "type": "address"
        }
      ],
      "name": "isApprovedForAll",
      "outputs": [
        {
          "internalType": "bool",
          "name": "",
          "type": "bool"
        }
      ],
      "stateMutability": "view",
      "type": "function"
    },
    {
      "inputs": [],
      "name": "makeNft",
      "outputs": [],
      "stateMutability": "nonpayable",
      "type": "function"
    },
    {
      "inputs": [],
      "name": "name",
      "outputs": [
        {
          "internalType": "string",
          "name": "",
          "type": "string"
        }
      ],
      "stateMutability": "view",
      "type": "function"
    },
    {
      "inputs": [
        {
          "internalType": "uint256",
          "name": "tokenId",
          "type": "uint256"
        }
      ],
      "name": "ownerOf",
      "outputs": [
        {
          "internalType": "address",
          "name": "",
          "type": "address"
        }
      ],
      "stateMutability": "view",
      "type": "function"
    },
    {
      "inputs": [
        {
          "internalType": "address",
          "name": "from",
          "type": "address"
        },
        {
          "internalType": "address",
          "name": "to",
          "type": "address"
        },
        {
          "internalType": "uint256",
          "name": "tokenId",
          "type": "uint256"
        }
      ],
      "name": "safeTransferFrom",
      "outputs": [],
      "stateMutability": "nonpayable",
      "type": "function"
    },
    {
      "inputs": [
        {
          "internalType": "address",
          "name": "from",
          "type": "address"
        },
        {
          "internalType": "address",
          "name": "to",
          "type": "address"
        },
        {
          "internalType": "uint256",
          "name": "tokenId",
          "type": "uint256"
        },
        {
          "internalType": "bytes",
          "name": "_data",
          "type": "bytes"
        }
      ],
      "name": "safeTransferFrom",
      "outputs": [],
      "stateMutability": "nonpayable",
      "type": "function"
    },
    {
      "inputs": [
        {
          "internalType": "address",
          "name": "operator",
          "type": "address"
        },
        {
          "internalType": "bool",
          "name": "approved",
          "type": "bool"
        }
      ],
      "name": "setApprovalForAll",
      "outputs": [],
      "stateMutability": "nonpayable",
      "type": "function"
    },
    {
      "inputs": [
        {
          "internalType": "bytes4",
          "name": "interfaceId",
          "type": "bytes4"
        }
      ],
      "name": "supportsInterface",
      "outputs": [
        {
          "internalType": "bool",
          "name": "",
          "type": "bool"
        }
      ],
      "stateMutability": "view",
      "type": "function"
    },
    {
      "inputs": [],
      "name": "symbol",
      "outputs": [
        {
          "internalType": "string",
          "name": "",
          "type": "string"
        }
      ],
      "stateMutability": "view",
      "type": "function"
    },
    {
      "inputs": [
        {
          "internalType": "uint256",
          "name": "tokenId",
          "type": "uint256"
        }
      ],
      "name": "tokenURI",
      "outputs": [
        {
          "internalType": "string",
          "name": "",
          "type": "string"
        }
      ],
      "stateMutability": "view",
      "type": "function"
    },
    {
      "inputs": [
        {
          "internalType": "address",
          "name": "from",
          "type": "address"
        },
        {
          "internalType": "address",
          "name": "to",
          "type": "address"
        },
        {
          "internalType": "uint256",
          "name": "tokenId",
          "type": "uint256"
        }
      ],
      "name": "transferFrom",
      "outputs": [],
      "stateMutability": "nonpayable",
      "type": "function"
    }
  ],
  "bytecode": "0x60806040523480156200001157600080fd5b506040518060400160405280600381526020017f4d465400000000000000000000000000000000000000000000000000000000008152506040518060400160405280600381526020017f4d46540000000000000000000000000000000000000000000000000000000000815250816000908051906020019062000096929190620001cf565b508060019080519060200190620000af929190620001cf565b505050620000fd6040518060400160405280600f81526020017f54686973206973206d79206e66742100000000000000000000000000000000008152506200010360201b62000b841760201c565b620003ac565b620001a3816040516024016200011a9190620002c0565b6040516020818303038152906040527f41304fac000000000000000000000000000000000000000000000000000000007bffffffffffffffffffffffffffffffffffffffffffffffffffffffff19166020820180517bffffffffffffffffffffffffffffffffffffffffffffffffffffffff8381831617835250505050620001a660201b60201c565b50565b60008151905060006a636f6e736f6c652e6c6f679050602083016000808483855afa5050505050565b828054620001dd9062000336565b90600052602060002090601f0160209004810192826200020157600085556200024d565b82601f106200021c57805160ff19168380011785556200024d565b828001600101855582156200024d579182015b828111156200024c5782518255916020019190600101906200022f565b5b5090506200025c919062000260565b5090565b5b808211156200027b57600081600090555060010162000261565b5090565b60006200028c82620002e4565b620002988185620002ef565b9350620002aa81856020860162000300565b620002b5816200039b565b840191505092915050565b60006020820190508181036000830152620002dc81846200027f565b905092915050565b600081519050919050565b600082825260208201905092915050565b60005b838110156200032057808201518184015260208101905062000303565b8381111562000330576000848401525b50505050565b600060028204905060018216806200034f57607f821691505b602082108114156200036657620003656200036c565b5b50919050565b7f4e487b7100000000000000000000000000000000000000000000000000000000600052602260045260246000fd5b6000601f19601f8301169050919050565b612ef980620003bc6000396000f3fe608060405234801561001057600080fd5b50600436106100f55760003560e01c806370a0823111610097578063a22cb46511610066578063a22cb46514610272578063b88d4fde1461028e578063c87b56dd146102aa578063e985e9c5146102da576100f5565b806370a08231146101fc57806376167a891461022c5780637c80d0c71461024a57806395d89b4114610254576100f5565b8063095ea7b3116100d3578063095ea7b31461017857806323b872dd1461019457806342842e0e146101b05780636352211e146101cc576100f5565b806301ffc9a7146100fa57806306fdde031461012a578063081812fc14610148575b600080fd5b610114600480360381019061010f9190611f44565b61030a565b604051610121919061234a565b60405180910390f35b6101326103ec565b60405161013f9190612365565b60405180910390f35b610162600480360381019061015d9190611f96565b61047e565b60405161016f91906122e3565b60405180910390f35b610192600480360381019061018d9190611f08565b610503565b005b6101ae60048036038101906101a99190611e02565b61061b565b005b6101ca60048036038101906101c59190611e02565b61067b565b005b6101e660048036038101906101e19190611f96565b61069b565b6040516101f391906122e3565b60405180910390f35b61021660048036038101906102119190611d9d565b61074d565b60405161022391906125f5565b60405180910390f35b610234610805565b60405161024191906122e3565b60405180910390f35b61025261080d565b005b61025c610894565b6040516102699190612365565b60405180910390f35b61028c60048036038101906102879190611ecc565b610926565b005b6102a860048036038101906102a39190611e51565b61093c565b005b6102c460048036038101906102bf9190611f96565b61099e565b6040516102d19190612365565b60405180910390f35b6102f460048036038101906102ef9190611dc6565b610af0565b604051610301919061234a565b60405180910390f35b60007f80ac58cd000000000000000000000000000000000000000000000000000000007bffffffffffffffffffffffffffffffffffffffffffffffffffffffff1916827bffffffffffffffffffffffffffffffffffffffffffffffffffffffff191614806103d557507f5b5e139f000000000000000000000000000000000000000000000000000000007bffffffffffffffffffffffffffffffffffffffffffffffffffffffff1916827bffffffffffffffffffffffffffffffffffffffffffffffffffffffff1916145b806103e557506103e482610c1d565b5b9050919050565b6060600080546103fb9061281a565b80601f01602080910402602001604051908101604052809291908181526020018280546104279061281a565b80156104745780601f1061044957610100808354040283529160200191610474565b820191906000526020600020905b81548152906001019060200180831161045757829003601f168201915b5050505050905090565b600061048982610c87565b6104c8576040517f08c379a00000000000000000000000000000000000000000000000000000000081526004016104bf90612575565b60405180910390fd5b6004600083815260200190815260200160002060009054906101000a900473ffffffffffffffffffffffffffffffffffffffff169050919050565b600061050e8261069b565b90508073ffffffffffffffffffffffffffffffffffffffff168373ffffffffffffffffffffffffffffffffffffffff16141561057f576040517f08c379a0000000000000000000000000000000000000000000000000000000008152600401610576906125b5565b60405180910390fd5b8073ffffffffffffffffffffffffffffffffffffffff1661059e610cf3565b73ffffffffffffffffffffffffffffffffffffffff1614806105cd57506105cc816105c7610cf3565b610af0565b5b61060c576040517f08c379a0000000000000000000000000000000000000000000000000000000008152600401610603906124b5565b60405180910390fd5b6106168383610cfb565b505050565b61062c610626610cf3565b82610db4565b61066b576040517f08c379a0000000000000000000000000000000000000000000000000000000008152600401610662906125d5565b60405180910390fd5b610676838383610ee2565b505050565b6106968383836040518060200160405280600081525061093c565b505050565b6000806002600084815260200190815260200160002060009054906101000a900473ffffffffffffffffffffffffffffffffffffffff169050600073ffffffffffffffffffffffffffffffffffffffff168173ffffffffffffffffffffffffffffffffffffffff161415610744576040517f08c379a000000000000000000000000000000000000000000000000000000000815260040161073b906124f5565b60405180910390fd5b80915050919050565b60008073ffffffffffffffffffffffffffffffffffffffff168273ffffffffffffffffffffffffffffffffffffffff1614156107be576040517f08c379a00000000000000000000000000000000000000000000000000000000081526004016107b5906124d5565b60405180910390fd5b600360008373ffffffffffffffffffffffffffffffffffffffff1673ffffffffffffffffffffffffffffffffffffffff168152602001908152602001600020549050919050565b600033905090565b60006108196007611149565b90506108253382611157565b610864816040518060400160405280601d81526020017f68747470733a2f2f6a736f6e6b65657065722e636f6d2f622f314c4848000000815250611175565b610887604051806060016040528060258152602001612e9f6025913982336111e9565b6108916007611288565b50565b6060600180546108a39061281a565b80601f01602080910402602001604051908101604052809291908181526020018280546108cf9061281a565b801561091c5780601f106108f15761010080835404028352916020019161091c565b820191906000526020600020905b8154815290600101906020018083116108ff57829003601f168201915b5050505050905090565b610938610931610cf3565b838361129e565b5050565b61094d610947610cf3565b83610db4565b61098c576040517f08c379a0000000000000000000000000000000000000000000000000000000008152600401610983906125d5565b60405180910390fd5b6109988484848461140b565b50505050565b60606109a982610c87565b6109e8576040517f08c379a00000000000000000000000000000000000000000000000000000000081526004016109df90612555565b60405180910390fd5b6000600660008481526020019081526020016000208054610a089061281a565b80601f0160208091040260200160405190810160405280929190818152602001828054610a349061281a565b8015610a815780601f10610a5657610100808354040283529160200191610a81565b820191906000526020600020905b815481529060010190602001808311610a6457829003601f168201915b505050505090506000610a92611467565b9050600081511415610aa8578192505050610aeb565b600082511115610add578082604051602001610ac59291906122bf565b60405160208183030381529060405292505050610aeb565b610ae68461147e565b925050505b919050565b6000600560008473ffffffffffffffffffffffffffffffffffffffff1673ffffffffffffffffffffffffffffffffffffffff16815260200190815260200160002060008373ffffffffffffffffffffffffffffffffffffffff1673ffffffffffffffffffffffffffffffffffffffff16815260200190815260200160002060009054906101000a900460ff16905092915050565b610c1a81604051602401610b989190612365565b6040516020818303038152906040527f41304fac000000000000000000000000000000000000000000000000000000007bffffffffffffffffffffffffffffffffffffffffffffffffffffffff19166020820180517bffffffffffffffffffffffffffffffffffffffffffffffffffffffff8381831617835250505050611525565b50565b60007f01ffc9a7000000000000000000000000000000000000000000000000000000007bffffffffffffffffffffffffffffffffffffffffffffffffffffffff1916827bffffffffffffffffffffffffffffffffffffffffffffffffffffffff1916149050919050565b60008073ffffffffffffffffffffffffffffffffffffffff166002600084815260200190815260200160002060009054906101000a900473ffffffffffffffffffffffffffffffffffffffff1673ffffffffffffffffffffffffffffffffffffffff1614159050919050565b600033905090565b816004600083815260200190815260200160002060006101000a81548173ffffffffffffffffffffffffffffffffffffffff021916908373ffffffffffffffffffffffffffffffffffffffff160217905550808273ffffffffffffffffffffffffffffffffffffffff16610d6e8361069b565b73ffffffffffffffffffffffffffffffffffffffff167f8c5be1e5ebec7d5bd14f71427d1e84f3dd0314c0f7b2291e5b200ac8c7c3b92560405160405180910390a45050565b6000610dbf82610c87565b610dfe576040517f08c379a0000000000000000000000000000000000000000000000000000000008152600401610df590612495565b60405180910390fd5b6000610e098361069b565b9050610e4a6040518060400160405280600a81526020017f7370656e646572202573000000000000000000000000000000000000000000008152508561154e565b610e5b610e568461047e565b6115ea565b8073ffffffffffffffffffffffffffffffffffffffff168473ffffffffffffffffffffffffffffffffffffffff161480610e9b5750610e9a8185610af0565b5b80610ed957508373ffffffffffffffffffffffffffffffffffffffff16610ec18461047e565b73ffffffffffffffffffffffffffffffffffffffff16145b91505092915050565b8273ffffffffffffffffffffffffffffffffffffffff16610f028261069b565b73ffffffffffffffffffffffffffffffffffffffff1614610f58576040517f08c379a0000000000000000000000000000000000000000000000000000000008152600401610f4f90612415565b60405180910390fd5b600073ffffffffffffffffffffffffffffffffffffffff168273ffffffffffffffffffffffffffffffffffffffff161415610fc8576040517f08c379a0000000000000000000000000000000000000000000000000000000008152600401610fbf90612455565b60405180910390fd5b610fd3838383611683565b610fde600082610cfb565b6001600360008573ffffffffffffffffffffffffffffffffffffffff1673ffffffffffffffffffffffffffffffffffffffff168152602001908152602001600020600082825461102e9190612730565b925050819055506001600360008473ffffffffffffffffffffffffffffffffffffffff1673ffffffffffffffffffffffffffffffffffffffff168152602001908152602001600020600082825461108591906126a9565b92505081905550816002600083815260200190815260200160002060006101000a81548173ffffffffffffffffffffffffffffffffffffffff021916908373ffffffffffffffffffffffffffffffffffffffff160217905550808273ffffffffffffffffffffffffffffffffffffffff168473ffffffffffffffffffffffffffffffffffffffff167fddf252ad1be2c89b69c2b068fc378daa952ba7f163c4a11628f55a4df523b3ef60405160405180910390a4611144838383611688565b505050565b600081600001549050919050565b61117182826040518060200160405280600081525061168d565b5050565b61117e82610c87565b6111bd576040517f08c379a00000000000000000000000000000000000000000000000000000000081526004016111b490612515565b60405180910390fd5b806006600084815260200190815260200160002090805190602001906111e4929190611c29565b505050565b611283838383604051602401611201939291906123b7565b6040516020818303038152906040527fe3849f79000000000000000000000000000000000000000000000000000000007bffffffffffffffffffffffffffffffffffffffffffffffffffffffff19166020820180517bffffffffffffffffffffffffffffffffffffffffffffffffffffffff8381831617835250505050611525565b505050565b6001816000016000828254019250508190555050565b8173ffffffffffffffffffffffffffffffffffffffff168373ffffffffffffffffffffffffffffffffffffffff16141561130d576040517f08c379a000000000000000000000000000000000000000000000000000000000815260040161130490612475565b60405180910390fd5b80600560008573ffffffffffffffffffffffffffffffffffffffff1673ffffffffffffffffffffffffffffffffffffffff16815260200190815260200160002060008473ffffffffffffffffffffffffffffffffffffffff1673ffffffffffffffffffffffffffffffffffffffff16815260200190815260200160002060006101000a81548160ff0219169083151502179055508173ffffffffffffffffffffffffffffffffffffffff168373ffffffffffffffffffffffffffffffffffffffff167f17307eab39ab6107e8899845ad3d59bd9653f200f220920489ca2b5937696c31836040516113fe919061234a565b60405180910390a3505050565b611416848484610ee2565b611422848484846116e8565b611461576040517f08c379a0000000000000000000000000000000000000000000000000000000008152600401611458906123f5565b60405180910390fd5b50505050565b606060405180602001604052806000815250905090565b606061148982610c87565b6114c8576040517f08c379a00000000000000000000000000000000000000000000000000000000081526004016114bf90612595565b60405180910390fd5b60006114d2611467565b905060008151116114f2576040518060200160405280600081525061151d565b806114fc8461187f565b60405160200161150d9291906122bf565b6040516020818303038152906040525b915050919050565b60008151905060006a636f6e736f6c652e6c6f679050602083016000808483855afa5050505050565b6115e68282604051602401611564929190612387565b6040516020818303038152906040527f319af333000000000000000000000000000000000000000000000000000000007bffffffffffffffffffffffffffffffffffffffffffffffffffffffff19166020820180517bffffffffffffffffffffffffffffffffffffffffffffffffffffffff8381831617835250505050611525565b5050565b611680816040516024016115fe91906122e3565b6040516020818303038152906040527f2c2ecbc2000000000000000000000000000000000000000000000000000000007bffffffffffffffffffffffffffffffffffffffffffffffffffffffff19166020820180517bffffffffffffffffffffffffffffffffffffffffffffffffffffffff8381831617835250505050611525565b50565b505050565b505050565b6116978383611a2c565b6116a460008484846116e8565b6116e3576040517f08c379a00000000000000000000000000000000000000000000000000000000081526004016116da906123f5565b60405180910390fd5b505050565b60006117098473ffffffffffffffffffffffffffffffffffffffff16611c06565b15611872578373ffffffffffffffffffffffffffffffffffffffff1663150b7a02611732610cf3565b8786866040518563ffffffff1660e01b815260040161175494939291906122fe565b602060405180830381600087803b15801561176e57600080fd5b505af192505050801561179f57506040513d601f19601f8201168201806040525081019061179c9190611f6d565b60015b611822573d80600081146117cf576040519150601f19603f3d011682016040523d82523d6000602084013e6117d4565b606091505b5060008151141561181a576040517f08c379a0000000000000000000000000000000000000000000000000000000008152600401611811906123f5565b60405180910390fd5b805181602001fd5b63150b7a0260e01b7bffffffffffffffffffffffffffffffffffffffffffffffffffffffff1916817bffffffffffffffffffffffffffffffffffffffffffffffffffffffff191614915050611877565b600190505b949350505050565b606060008214156118c7576040518060400160405280600181526020017f30000000000000000000000000000000000000000000000000000000000000008152509050611a27565b600082905060005b600082146118f95780806118e29061287d565b915050600a826118f291906126ff565b91506118cf565b60008167ffffffffffffffff81111561193b577f4e487b7100000000000000000000000000000000000000000000000000000000600052604160045260246000fd5b6040519080825280601f01601f19166020018201604052801561196d5781602001600182028036833780820191505090505b5090505b60008514611a20576001826119869190612730565b9150600a8561199591906128c6565b60306119a191906126a9565b60f81b8183815181106119dd577f4e487b7100000000000000000000000000000000000000000000000000000000600052603260045260246000fd5b60200101907effffffffffffffffffffffffffffffffffffffffffffffffffffffffffffff1916908160001a905350600a85611a1991906126ff565b9450611971565b8093505050505b919050565b600073ffffffffffffffffffffffffffffffffffffffff168273ffffffffffffffffffffffffffffffffffffffff161415611a9c576040517f08c379a0000000000000000000000000000000000000000000000000000000008152600401611a9390612535565b60405180910390fd5b611aa581610c87565b15611ae5576040517f08c379a0000000000000000000000000000000000000000000000000000000008152600401611adc90612435565b60405180910390fd5b611af160008383611683565b6001600360008473ffffffffffffffffffffffffffffffffffffffff1673ffffffffffffffffffffffffffffffffffffffff1681526020019081526020016000206000828254611b4191906126a9565b92505081905550816002600083815260200190815260200160002060006101000a81548173ffffffffffffffffffffffffffffffffffffffff021916908373ffffffffffffffffffffffffffffffffffffffff160217905550808273ffffffffffffffffffffffffffffffffffffffff16600073ffffffffffffffffffffffffffffffffffffffff167fddf252ad1be2c89b69c2b068fc378daa952ba7f163c4a11628f55a4df523b3ef60405160405180910390a4611c0260008383611688565b5050565b6000808273ffffffffffffffffffffffffffffffffffffffff163b119050919050565b828054611c359061281a565b90600052602060002090601f016020900481019282611c575760008555611c9e565b82601f10611c7057805160ff1916838001178555611c9e565b82800160010185558215611c9e579182015b82811115611c9d578251825591602001919060010190611c82565b5b509050611cab9190611caf565b5090565b5b80821115611cc8576000816000905550600101611cb0565b5090565b6000611cdf611cda84612635565b612610565b905082815260208101848484011115611cf757600080fd5b611d028482856127d8565b509392505050565b600081359050611d1981612e42565b92915050565b600081359050611d2e81612e59565b92915050565b600081359050611d4381612e70565b92915050565b600081519050611d5881612e70565b92915050565b600082601f830112611d6f57600080fd5b8135611d7f848260208601611ccc565b91505092915050565b600081359050611d9781612e87565b92915050565b600060208284031215611daf57600080fd5b6000611dbd84828501611d0a565b91505092915050565b60008060408385031215611dd957600080fd5b6000611de785828601611d0a565b9250506020611df885828601611d0a565b9150509250929050565b600080600060608486031215611e1757600080fd5b6000611e2586828701611d0a565b9350506020611e3686828701611d0a565b9250506040611e4786828701611d88565b9150509250925092565b60008060008060808587031215611e6757600080fd5b6000611e7587828801611d0a565b9450506020611e8687828801611d0a565b9350506040611e9787828801611d88565b925050606085013567ffffffffffffffff811115611eb457600080fd5b611ec087828801611d5e565b91505092959194509250565b60008060408385031215611edf57600080fd5b6000611eed85828601611d0a565b9250506020611efe85828601611d1f565b9150509250929050565b60008060408385031215611f1b57600080fd5b6000611f2985828601611d0a565b9250506020611f3a85828601611d88565b9150509250929050565b600060208284031215611f5657600080fd5b6000611f6484828501611d34565b91505092915050565b600060208284031215611f7f57600080fd5b6000611f8d84828501611d49565b91505092915050565b600060208284031215611fa857600080fd5b6000611fb684828501611d88565b91505092915050565b611fc881612764565b82525050565b611fd781612776565b82525050565b6000611fe882612666565b611ff2818561267c565b93506120028185602086016127e7565b61200b816129b3565b840191505092915050565b600061202182612671565b61202b818561268d565b935061203b8185602086016127e7565b612044816129b3565b840191505092915050565b600061205a82612671565b612064818561269e565b93506120748185602086016127e7565b80840191505092915050565b600061208d60328361268d565b9150612098826129c4565b604082019050919050565b60006120b060258361268d565b91506120bb82612a13565b604082019050919050565b60006120d3601c8361268d565b91506120de82612a62565b602082019050919050565b60006120f660248361268d565b915061210182612a8b565b604082019050919050565b600061211960198361268d565b915061212482612ada565b602082019050919050565b600061213c602c8361268d565b915061214782612b03565b604082019050919050565b600061215f60388361268d565b915061216a82612b52565b604082019050919050565b6000612182602a8361268d565b915061218d82612ba1565b604082019050919050565b60006121a560298361268d565b91506121b082612bf0565b604082019050919050565b60006121c8602e8361268d565b91506121d382612c3f565b604082019050919050565b60006121eb60208361268d565b91506121f682612c8e565b602082019050919050565b600061220e60318361268d565b915061221982612cb7565b604082019050919050565b6000612231602c8361268d565b915061223c82612d06565b604082019050919050565b6000612254602f8361268d565b915061225f82612d55565b604082019050919050565b600061227760218361268d565b915061228282612da4565b604082019050919050565b600061229a60318361268d565b91506122a582612df3565b604082019050919050565b6122b9816127ce565b82525050565b60006122cb828561204f565b91506122d7828461204f565b91508190509392505050565b60006020820190506122f86000830184611fbf565b92915050565b60006080820190506123136000830187611fbf565b6123206020830186611fbf565b61232d60408301856122b0565b818103606083015261233f8184611fdd565b905095945050505050565b600060208201905061235f6000830184611fce565b92915050565b6000602082019050818103600083015261237f8184612016565b905092915050565b600060408201905081810360008301526123a18185612016565b90506123b06020830184611fbf565b9392505050565b600060608201905081810360008301526123d18186612016565b90506123e060208301856122b0565b6123ed6040830184611fbf565b949350505050565b6000602082019050818103600083015261240e81612080565b9050919050565b6000602082019050818103600083015261242e816120a3565b9050919050565b6000602082019050818103600083015261244e816120c6565b9050919050565b6000602082019050818103600083015261246e816120e9565b9050919050565b6000602082019050818103600083015261248e8161210c565b9050919050565b600060208201905081810360008301526124ae8161212f565b9050919050565b600060208201905081810360008301526124ce81612152565b9050919050565b600060208201905081810360008301526124ee81612175565b9050919050565b6000602082019050818103600083015261250e81612198565b9050919050565b6000602082019050818103600083015261252e816121bb565b9050919050565b6000602082019050818103600083015261254e816121de565b9050919050565b6000602082019050818103600083015261256e81612201565b9050919050565b6000602082019050818103600083015261258e81612224565b9050919050565b600060208201905081810360008301526125ae81612247565b9050919050565b600060208201905081810360008301526125ce8161226a565b9050919050565b600060208201905081810360008301526125ee8161228d565b9050919050565b600060208201905061260a60008301846122b0565b92915050565b600061261a61262b565b9050612626828261284c565b919050565b6000604051905090565b600067ffffffffffffffff8211156126505761264f612984565b5b612659826129b3565b9050602081019050919050565b600081519050919050565b600081519050919050565b600082825260208201905092915050565b600082825260208201905092915050565b600081905092915050565b60006126b4826127ce565b91506126bf836127ce565b9250827fffffffffffffffffffffffffffffffffffffffffffffffffffffffffffffffff038211156126f4576126f36128f7565b5b828201905092915050565b600061270a826127ce565b9150612715836127ce565b92508261272557612724612926565b5b828204905092915050565b600061273b826127ce565b9150612746836127ce565b925082821015612759576127586128f7565b5b828203905092915050565b600061276f826127ae565b9050919050565b60008115159050919050565b60007fffffffff0000000000000000000000000000000000000000000000000000000082169050919050565b600073ffffffffffffffffffffffffffffffffffffffff82169050919050565b6000819050919050565b82818337600083830152505050565b60005b838110156128055780820151818401526020810190506127ea565b83811115612814576000848401525b50505050565b6000600282049050600182168061283257607f821691505b6020821081141561284657612845612955565b5b50919050565b612855826129b3565b810181811067ffffffffffffffff8211171561287457612873612984565b5b80604052505050565b6000612888826127ce565b91507fffffffffffffffffffffffffffffffffffffffffffffffffffffffffffffffff8214156128bb576128ba6128f7565b5b600182019050919050565b60006128d1826127ce565b91506128dc836127ce565b9250826128ec576128eb612926565b5b828206905092915050565b7f4e487b7100000000000000000000000000000000000000000000000000000000600052601160045260246000fd5b7f4e487b7100000000000000000000000000000000000000000000000000000000600052601260045260246000fd5b7f4e487b7100000000000000000000000000000000000000000000000000000000600052602260045260246000fd5b7f4e487b7100000000000000000000000000000000000000000000000000000000600052604160045260246000fd5b6000601f19601f8301169050919050565b7f4552433732313a207472616e7366657220746f206e6f6e20455243373231526560008201527f63656976657220696d706c656d656e7465720000000000000000000000000000602082015250565b7f4552433732313a207472616e736665722066726f6d20696e636f72726563742060008201527f6f776e6572000000000000000000000000000000000000000000000000000000602082015250565b7f4552433732313a20746f6b656e20616c7265616479206d696e74656400000000600082015250565b7f4552433732313a207472616e7366657220746f20746865207a65726f2061646460008201527f7265737300000000000000000000000000000000000000000000000000000000602082015250565b7f4552433732313a20617070726f766520746f2063616c6c657200000000000000600082015250565b7f4552433732313a206f70657261746f7220717565727920666f72206e6f6e657860008201527f697374656e7420746f6b656e0000000000000000000000000000000000000000602082015250565b7f4552433732313a20617070726f76652063616c6c6572206973206e6f74206f7760008201527f6e6572206e6f7220617070726f76656420666f7220616c6c0000000000000000602082015250565b7f4552433732313a2062616c616e636520717565727920666f7220746865207a6560008201527f726f206164647265737300000000000000000000000000000000000000000000602082015250565b7f4552433732313a206f776e657220717565727920666f72206e6f6e657869737460008201527f656e7420746f6b656e0000000000000000000000000000000000000000000000602082015250565b7f45524337323155524953746f726167653a2055524920736574206f66206e6f6e60008201527f6578697374656e7420746f6b656e000000000000000000000000000000000000602082015250565b7f4552433732313a206d696e7420746f20746865207a65726f2061646472657373600082015250565b7f45524337323155524953746f726167653a2055524920717565727920666f722060008201527f6e6f6e6578697374656e7420746f6b656e000000000000000000000000000000602082015250565b7f4552433732313a20617070726f76656420717565727920666f72206e6f6e657860008201527f697374656e7420746f6b656e0000000000000000000000000000000000000000602082015250565b7f4552433732314d657461646174613a2055524920717565727920666f72206e6f60008201527f6e6578697374656e7420746f6b656e0000000000000000000000000000000000602082015250565b7f4552433732313a20617070726f76616c20746f2063757272656e74206f776e6560008201527f7200000000000000000000000000000000000000000000000000000000000000602082015250565b7f4552433732313a207472616e736665722063616c6c6572206973206e6f74206f60008201527f776e6572206e6f7220617070726f766564000000000000000000000000000000602082015250565b612e4b81612764565b8114612e5657600080fd5b50565b612e6281612776565b8114612e6d57600080fd5b50565b612e7981612782565b8114612e8457600080fd5b50565b612e90816127ce565b8114612e9b57600080fd5b5056fe416e204e465420772f20494420257320686173206265656e206d696e74656420746f202573a26469706673582212202951c37a726a91623d4bd40ec8fe366eda401ac610a273b4c868a6042b8b9d3964736f6c63430008040033",
  "linkReferences": {},
  "deployedLinkReferences": {}
}