{
  "_format": "hh-sol-artifact-1",
  "contractName": "NftEscrow",
  "sourceName": "contracts/NftEscrow.sol",
  "abi": [
    {
      "inputs": [],
      "stateMutability": "nonpayable",
      "type": "constructor"
    },
    {
      "anonymous": false,
      "inputs": [
        {
          "indexed": false,
          "internalType": "address",
          "name": "sender",
          "type": "address"
        },
        {
          "indexed": false,
          "internalType": "uint256",
          "name": "tokenId",
          "type": "uint256"
        }
      ],
      "name": "Approve",
      "type": "event"
    },
    {
      "inputs": [],
      "name": "amountOwed",
      "outputs": [
        {
          "internalType": "uint256",
          "name": "",
          "type": "uint256"
        }
      ],
      "stateMutability": "view",
      "type": "function"
    },
    {
      "inputs": [],
      "name": "buyerAddress",
      "outputs": [
        {
          "internalType": "address payable",
          "name": "",
          "type": "address"
        }
      ],
      "stateMutability": "view",
      "type": "function"
    },
    {
      "inputs": [],
      "name": "cancelNFT",
      "outputs": [],
      "stateMutability": "payable",
      "type": "function"
    },
    {
      "inputs": [],
      "name": "claimMoney",
      "outputs": [],
      "stateMutability": "payable",
      "type": "function"
    },
    {
      "inputs": [],
      "name": "depositEth",
      "outputs": [],
      "stateMutability": "payable",
      "type": "function"
    },
    {
      "inputs": [
        {
          "internalType": "address",
          "name": "_NFTAddress",
          "type": "address"
        },
        {
          "internalType": "uint256",
          "name": "_TokenID",
          "type": "uint256"
        }
      ],
      "name": "depositNFT",
      "outputs": [],
      "stateMutability": "nonpayable",
      "type": "function"
    },
    {
      "inputs": [],
      "name": "endTime",
      "outputs": [
        {
          "internalType": "uint256",
          "name": "",
          "type": "uint256"
        }
      ],
      "stateMutability": "view",
      "type": "function"
    },
    {
      "inputs": [],
      "name": "getBalance",
      "outputs": [
        {
          "internalType": "uint256",
          "name": "",
          "type": "uint256"
        }
      ],
      "stateMutability": "view",
      "type": "function"
    },
    {
      "inputs": [],
      "name": "getOwedAmount",
      "outputs": [
        {
          "internalType": "uint256",
          "name": "",
          "type": "uint256"
        }
      ],
      "stateMutability": "view",
      "type": "function"
    },
    {
      "inputs": [],
      "name": "nftAddress",
      "outputs": [
        {
          "internalType": "address",
          "name": "",
          "type": "address"
        }
      ],
      "stateMutability": "view",
      "type": "function"
    },
    {
      "inputs": [
        {
          "internalType": "address",
          "name": "",
          "type": "address"
        },
        {
          "internalType": "address",
          "name": "",
          "type": "address"
        },
        {
          "internalType": "uint256",
          "name": "",
          "type": "uint256"
        },
        {
          "internalType": "bytes",
          "name": "",
          "type": "bytes"
        }
      ],
      "name": "onERC721Received",
      "outputs": [
        {
          "internalType": "bytes4",
          "name": "",
          "type": "bytes4"
        }
      ],
      "stateMutability": "pure",
      "type": "function"
    },
    {
      "inputs": [],
      "name": "projectState",
      "outputs": [
        {
          "internalType": "enum NftEscrow.ProjectState",
          "name": "",
          "type": "uint8"
        }
      ],
      "stateMutability": "view",
      "type": "function"
    },
    {
      "inputs": [
        {
          "internalType": "address",
          "name": "_NFTAddress",
          "type": "address"
        },
        {
          "internalType": "uint256",
          "name": "_TokenID",
          "type": "uint256"
        }
      ],
      "name": "returnNft",
      "outputs": [],
      "stateMutability": "payable",
      "type": "function"
    },
    {
      "inputs": [],
      "name": "sellerAddress",
      "outputs": [
        {
          "internalType": "address payable",
          "name": "",
          "type": "address"
        }
      ],
      "stateMutability": "view",
      "type": "function"
    },
    {
      "inputs": [],
      "name": "startTime",
      "outputs": [
        {
          "internalType": "uint256",
          "name": "",
          "type": "uint256"
        }
      ],
      "stateMutability": "view",
      "type": "function"
    },
    {
      "inputs": [
        {
          "internalType": "address",
          "name": "_wallet",
          "type": "address"
        },
        {
          "internalType": "address",
          "name": "_contract",
          "type": "address"
        }
      ],
      "name": "walletHoldsToken",
      "outputs": [
        {
          "internalType": "bool",
          "name": "",
          "type": "bool"
        }
      ],
      "stateMutability": "view",
      "type": "function"
    },
    {
      "stateMutability": "payable",
      "type": "receive"
    }
  ],
  "bytecode": "0x60806040527343dfe62621f352e7e940cb191b03822b3212034b600660006101000a81548173ffffffffffffffffffffffffffffffffffffffff021916908373ffffffffffffffffffffffffffffffffffffffff1602179055503480156200006657600080fd5b50336000806101000a81548173ffffffffffffffffffffffffffffffffffffffff021916908373ffffffffffffffffffffffffffffffffffffffff1602179055506000600460006101000a81548160ff02191690836006811115620000f4577f4e487b7100000000000000000000000000000000000000000000000000000000600052602160045260246000fd5b0217905550600a60058190555062093a804262000112919062000126565b6008819055506064600981905550620001bc565b6000620001338262000183565b9150620001408362000183565b9250827fffffffffffffffffffffffffffffffffffffffffffffffffffffffffffffffff038211156200017857620001776200018d565b5b828201905092915050565b6000819050919050565b7f4e487b7100000000000000000000000000000000000000000000000000000000600052601160045260246000fd5b6115c180620001cc6000396000f3fe6080604052600436106100f75760003560e01c80636658e52b1161008a578063926349161161005957806392634916146102f15780639b5b9b181461031c578063aa00810b14610345578063f9fde9bd1461034f57610106565b80636658e52b14610266578063748807ab14610270578063775e9fce1461029b57806378e97925146102c657610106565b80633d9b2ae6116100c65780633d9b2ae6146101db578063439370b11461020657806344834aca146102105780635bf8633a1461023b57610106565b80630e57df441461010b57806312065fe014610148578063150b7a02146101735780633197cbb6146101b057610106565b366101065761010461036b565b005b600080fd5b34801561011757600080fd5b50610132600480360381019061012d9190611005565b610636565b60405161013f9190611256565b60405180910390f35b34801561015457600080fd5b5061015d6106cb565b60405161016a91906112c7565b60405180910390f35b34801561017f57600080fd5b5061019a60048036038101906101959190611041565b6106d3565b6040516101a79190611271565b60405180910390f35b3480156101bc57600080fd5b506101c56106e8565b6040516101d291906112c7565b60405180910390f35b3480156101e757600080fd5b506101f06106ee565b6040516101fd91906111cd565b60405180910390f35b61020e61036b565b005b34801561021c57600080fd5b50610225610712565b60405161023291906111cd565b60405180910390f35b34801561024757600080fd5b50610250610738565b60405161025d91906111b2565b60405180910390f35b61026e61075e565b005b34801561027c57600080fd5b50610285610882565b604051610292919061128c565b60405180910390f35b3480156102a757600080fd5b506102b0610895565b6040516102bd91906112c7565b60405180910390f35b3480156102d257600080fd5b506102db61089b565b6040516102e891906112c7565b60405180910390f35b3480156102fd57600080fd5b506103066108a1565b60405161031391906112c7565b60405180910390f35b34801561032857600080fd5b50610343600480360381019061033e91906110c1565b6108ab565b005b61034d610a3a565b005b610369600480360381019061036491906110c1565b610c53565b005b30600260009054906101000a900473ffffffffffffffffffffffffffffffffffffffff1660008173ffffffffffffffffffffffffffffffffffffffff166370a08231846040518263ffffffff1660e01b81526004016103ca91906111b2565b60206040518083038186803b1580156103e257600080fd5b505afa1580156103f6573d6000803e3d6000fd5b505050506040513d601f19601f8201168201806040525081019061041a91906110fd565b1161042457600080fd5b6009543414610468576040517f08c379a000000000000000000000000000000000000000000000000000000000815260040161045f906112a7565b60405180910390fd5b33600160006101000a81548173ffffffffffffffffffffffffffffffffffffffff021916908373ffffffffffffffffffffffffffffffffffffffff1602179055506003600460006101000a81548160ff021916908360068111156104f5577f4e487b7100000000000000000000000000000000000000000000000000000000600052602160045260246000fd5b021790555061052630600260009054906101000a900473ffffffffffffffffffffffffffffffffffffffff16610636565b1561063257600260009054906101000a900473ffffffffffffffffffffffffffffffffffffffff1673ffffffffffffffffffffffffffffffffffffffff166342842e0e30600160009054906101000a900473ffffffffffffffffffffffffffffffffffffffff166003546040518463ffffffff1660e01b81526004016105ae939291906111e8565b600060405180830381600087803b1580156105c857600080fd5b505af11580156105dc573d6000803e3d6000fd5b505050506005600460006101000a81548160ff0219169083600681111561062c577f4e487b7100000000000000000000000000000000000000000000000000000000600052602160045260246000fd5b02179055505b5050565b6000808273ffffffffffffffffffffffffffffffffffffffff166370a08231856040518263ffffffff1660e01b815260040161067291906111b2565b60206040518083038186803b15801561068a57600080fd5b505afa15801561069e573d6000803e3d6000fd5b505050506040513d601f19601f820116820180604052508101906106c291906110fd565b11905092915050565b600047905090565b600063150b7a0260e01b905095945050505050565b60085481565b60008054906101000a900473ffffffffffffffffffffffffffffffffffffffff1681565b600160009054906101000a900473ffffffffffffffffffffffffffffffffffffffff1681565b600260009054906101000a900473ffffffffffffffffffffffffffffffffffffffff1681565b60008054906101000a900473ffffffffffffffffffffffffffffffffffffffff1673ffffffffffffffffffffffffffffffffffffffff163373ffffffffffffffffffffffffffffffffffffffff16146107b657600080fd5b60085442101580156108135750610811600160009054906101000a900473ffffffffffffffffffffffffffffffffffffffff16600260009054906101000a900473ffffffffffffffffffffffffffffffffffffffff16610636565b155b156108805760008054906101000a900473ffffffffffffffffffffffffffffffffffffffff1673ffffffffffffffffffffffffffffffffffffffff166108fc479081150290604051600060405180830381858888f1935050505015801561087e573d6000803e3d6000fd5b505b565b600460009054906101000a900460ff1681565b60095481565b60075481565b6000600954905090565b60008054906101000a900473ffffffffffffffffffffffffffffffffffffffff1673ffffffffffffffffffffffffffffffffffffffff163373ffffffffffffffffffffffffffffffffffffffff161461090357600080fd5b4260078190555081600260006101000a81548173ffffffffffffffffffffffffffffffffffffffff021916908373ffffffffffffffffffffffffffffffffffffffff16021790555080600381905550600260009054906101000a900473ffffffffffffffffffffffffffffffffffffffff1673ffffffffffffffffffffffffffffffffffffffff166342842e0e33306003546040518463ffffffff1660e01b81526004016109b39392919061121f565b600060405180830381600087803b1580156109cd57600080fd5b505af11580156109e1573d6000803e3d6000fd5b505050506001600460006101000a81548160ff02191690836006811115610a31577f4e487b7100000000000000000000000000000000000000000000000000000000600052602160045260246000fd5b02179055505050565b60008054906101000a900473ffffffffffffffffffffffffffffffffffffffff1673ffffffffffffffffffffffffffffffffffffffff163373ffffffffffffffffffffffffffffffffffffffff1614610a9257600080fd5b30600260009054906101000a900473ffffffffffffffffffffffffffffffffffffffff1660008173ffffffffffffffffffffffffffffffffffffffff166370a08231846040518263ffffffff1660e01b8152600401610af191906111b2565b60206040518083038186803b158015610b0957600080fd5b505afa158015610b1d573d6000803e3d6000fd5b505050506040513d601f19601f82011682018060405250810190610b4191906110fd565b11610b4b57600080fd5b600260009054906101000a900473ffffffffffffffffffffffffffffffffffffffff1673ffffffffffffffffffffffffffffffffffffffff166342842e0e3060008054906101000a900473ffffffffffffffffffffffffffffffffffffffff166003546040518463ffffffff1660e01b8152600401610bcc939291906111e8565b600060405180830381600087803b158015610be657600080fd5b505af1158015610bfa573d6000803e3d6000fd5b505050506002600460006101000a81548160ff02191690836006811115610c4a577f4e487b7100000000000000000000000000000000000000000000000000000000600052602160045260246000fd5b02179055505050565b600160009054906101000a900473ffffffffffffffffffffffffffffffffffffffff1673ffffffffffffffffffffffffffffffffffffffff163373ffffffffffffffffffffffffffffffffffffffff1614610cad57600080fd5b81600260006101000a81548173ffffffffffffffffffffffffffffffffffffffff021916908373ffffffffffffffffffffffffffffffffffffffff16021790555080600381905550600260009054906101000a900473ffffffffffffffffffffffffffffffffffffffff1673ffffffffffffffffffffffffffffffffffffffff166342842e0e33306003546040518463ffffffff1660e01b8152600401610d569392919061121f565b600060405180830381600087803b158015610d7057600080fd5b505af1158015610d84573d6000803e3d6000fd5b5050505060004790506000606460055483610d9f9190611324565b610da991906112f3565b82610db4919061137e565b90506000606460055484610dc89190611324565b610dd291906112f3565b9050600160009054906101000a900473ffffffffffffffffffffffffffffffffffffffff1673ffffffffffffffffffffffffffffffffffffffff166108fc839081150290604051600060405180830381858888f19350505050158015610e3c573d6000803e3d6000fd5b50600660009054906101000a900473ffffffffffffffffffffffffffffffffffffffff1673ffffffffffffffffffffffffffffffffffffffff166108fc600283610e8691906112f3565b9081150290604051600060405180830381858888f19350505050158015610eb1573d6000803e3d6000fd5b5060008054906101000a900473ffffffffffffffffffffffffffffffffffffffff1673ffffffffffffffffffffffffffffffffffffffff166108fc600283610ef991906112f3565b9081150290604051600060405180830381858888f19350505050158015610f24573d6000803e3d6000fd5b5060048060006101000a81548160ff02191690836006811115610f70577f4e487b7100000000000000000000000000000000000000000000000000000000600052602160045260246000fd5b02179055505050505050565b600081359050610f8b8161155d565b92915050565b60008083601f840112610fa357600080fd5b8235905067ffffffffffffffff811115610fbc57600080fd5b602083019150836001820283011115610fd457600080fd5b9250929050565b600081359050610fea81611574565b92915050565b600081519050610fff81611574565b92915050565b6000806040838503121561101857600080fd5b600061102685828601610f7c565b925050602061103785828601610f7c565b9150509250929050565b60008060008060006080868803121561105957600080fd5b600061106788828901610f7c565b955050602061107888828901610f7c565b945050604061108988828901610fdb565b935050606086013567ffffffffffffffff8111156110a657600080fd5b6110b288828901610f91565b92509250509295509295909350565b600080604083850312156110d457600080fd5b60006110e285828601610f7c565b92505060206110f385828601610fdb565b9150509250929050565b60006020828403121561110f57600080fd5b600061111d84828501610ff0565b91505092915050565b61112f8161144b565b82525050565b61113e816113c4565b82525050565b61114d816113b2565b82525050565b61115c816113d6565b82525050565b61116b816113e2565b82525050565b61117a8161145d565b82525050565b600061118d6012836112e2565b915061119882611520565b602082019050919050565b6111ac81611441565b82525050565b60006020820190506111c76000830184611144565b92915050565b60006020820190506111e26000830184611135565b92915050565b60006060820190506111fd6000830186611144565b61120a6020830185611126565b61121760408301846111a3565b949350505050565b60006060820190506112346000830186611144565b6112416020830185611144565b61124e60408301846111a3565b949350505050565b600060208201905061126b6000830184611153565b92915050565b60006020820190506112866000830184611162565b92915050565b60006020820190506112a16000830184611171565b92915050565b600060208201905081810360008301526112c081611180565b9050919050565b60006020820190506112dc60008301846111a3565b92915050565b600082825260208201905092915050565b60006112fe82611441565b915061130983611441565b925082611319576113186114c2565b5b828204905092915050565b600061132f82611441565b915061133a83611441565b9250817fffffffffffffffffffffffffffffffffffffffffffffffffffffffffffffffff048311821515161561137357611372611493565b5b828202905092915050565b600061138982611441565b915061139483611441565b9250828210156113a7576113a6611493565b5b828203905092915050565b60006113bd82611421565b9050919050565b60006113cf82611421565b9050919050565b60008115159050919050565b60007fffffffff0000000000000000000000000000000000000000000000000000000082169050919050565b600081905061141c82611549565b919050565b600073ffffffffffffffffffffffffffffffffffffffff82169050919050565b6000819050919050565b60006114568261146f565b9050919050565b60006114688261140e565b9050919050565b600061147a82611481565b9050919050565b600061148c82611421565b9050919050565b7f4e487b7100000000000000000000000000000000000000000000000000000000600052601160045260246000fd5b7f4e487b7100000000000000000000000000000000000000000000000000000000600052601260045260246000fd5b7f4e487b7100000000000000000000000000000000000000000000000000000000600052602160045260246000fd5b7f596f75206f7765206d6f7265206d6f6e65790000000000000000000000000000600082015250565b6007811061155a576115596114f1565b5b50565b611566816113b2565b811461157157600080fd5b50565b61157d81611441565b811461158857600080fd5b5056fea2646970667358221220052a7602616e1ced436d023f60f0831df6618ae41d6f28138544a52101bc070264736f6c63430008040033",
  "linkReferences": {},
  "deployedLinkReferences": {}
}