{
  "_format": "hh-sol-artifact-1",
  "contractName": "NftEscrow",
  "sourceName": "contracts/NftEscrow.sol",
  "abi": [
    {
      "inputs": [],
      "stateMutability": "nonpayable",
      "type": "constructor"
    },
    {
      "anonymous": false,
      "inputs": [
        {
          "indexed": false,
          "internalType": "address",
          "name": "sender",
          "type": "address"
        },
        {
          "indexed": false,
          "internalType": "uint256",
          "name": "tokenId",
          "type": "uint256"
        }
      ],
      "name": "Approve",
      "type": "event"
    },
    {
      "inputs": [],
      "name": "amountOwed",
      "outputs": [
        {
          "internalType": "uint256",
          "name": "",
          "type": "uint256"
        }
      ],
      "stateMutability": "view",
      "type": "function"
    },
    {
      "inputs": [],
      "name": "buyerAddress",
      "outputs": [
        {
          "internalType": "address payable",
          "name": "",
          "type": "address"
        }
      ],
      "stateMutability": "view",
      "type": "function"
    },
    {
      "inputs": [],
      "name": "cancelNFT",
      "outputs": [],
      "stateMutability": "payable",
      "type": "function"
    },
    {
      "inputs": [],
      "name": "claimMoney",
      "outputs": [],
      "stateMutability": "payable",
      "type": "function"
    },
    {
      "inputs": [],
      "name": "depositEth",
      "outputs": [],
      "stateMutability": "payable",
      "type": "function"
    },
    {
      "inputs": [
        {
          "internalType": "address",
          "name": "_NFTAddress",
          "type": "address"
        },
        {
          "internalType": "uint256",
          "name": "_TokenID",
          "type": "uint256"
        }
      ],
      "name": "depositNFT",
      "outputs": [],
      "stateMutability": "nonpayable",
      "type": "function"
    },
    {
      "inputs": [],
      "name": "endTime",
      "outputs": [
        {
          "internalType": "uint256",
          "name": "",
          "type": "uint256"
        }
      ],
      "stateMutability": "view",
      "type": "function"
    },
    {
      "inputs": [],
      "name": "getBalance",
      "outputs": [
        {
          "internalType": "uint256",
          "name": "",
          "type": "uint256"
        }
      ],
      "stateMutability": "view",
      "type": "function"
    },
    {
      "inputs": [],
      "name": "getOwedAmount",
      "outputs": [
        {
          "internalType": "uint256",
          "name": "",
          "type": "uint256"
        }
      ],
      "stateMutability": "view",
      "type": "function"
    },
    {
      "inputs": [],
      "name": "getProjectState",
      "outputs": [
        {
          "internalType": "enum NftEscrow.ProjectState",
          "name": "",
          "type": "uint8"
        }
      ],
      "stateMutability": "view",
      "type": "function"
    },
    {
      "inputs": [],
      "name": "nftAddress",
      "outputs": [
        {
          "internalType": "address",
          "name": "",
          "type": "address"
        }
      ],
      "stateMutability": "view",
      "type": "function"
    },
    {
      "inputs": [
        {
          "internalType": "address",
          "name": "",
          "type": "address"
        },
        {
          "internalType": "address",
          "name": "",
          "type": "address"
        },
        {
          "internalType": "uint256",
          "name": "",
          "type": "uint256"
        },
        {
          "internalType": "bytes",
          "name": "",
          "type": "bytes"
        }
      ],
      "name": "onERC721Received",
      "outputs": [
        {
          "internalType": "bytes4",
          "name": "",
          "type": "bytes4"
        }
      ],
      "stateMutability": "pure",
      "type": "function"
    },
    {
      "inputs": [],
      "name": "projectState",
      "outputs": [
        {
          "internalType": "enum NftEscrow.ProjectState",
          "name": "",
          "type": "uint8"
        }
      ],
      "stateMutability": "view",
      "type": "function"
    },
    {
      "inputs": [
        {
          "internalType": "address",
          "name": "_NFTAddress",
          "type": "address"
        },
        {
          "internalType": "uint256",
          "name": "_TokenID",
          "type": "uint256"
        }
      ],
      "name": "returnNft",
      "outputs": [],
      "stateMutability": "payable",
      "type": "function"
    },
    {
      "inputs": [],
      "name": "sellerAddress",
      "outputs": [
        {
          "internalType": "address payable",
          "name": "",
          "type": "address"
        }
      ],
      "stateMutability": "view",
      "type": "function"
    },
    {
      "inputs": [],
      "name": "startTime",
      "outputs": [
        {
          "internalType": "uint256",
          "name": "",
          "type": "uint256"
        }
      ],
      "stateMutability": "view",
      "type": "function"
    },
    {
      "inputs": [
        {
          "internalType": "address",
          "name": "_wallet",
          "type": "address"
        },
        {
          "internalType": "address",
          "name": "_contract",
          "type": "address"
        }
      ],
      "name": "walletHoldsToken",
      "outputs": [
        {
          "internalType": "bool",
          "name": "",
          "type": "bool"
        }
      ],
      "stateMutability": "view",
      "type": "function"
    },
    {
      "stateMutability": "payable",
      "type": "receive"
    }
  ],
  "bytecode": "0x60806040527343dfe62621f352e7e940cb191b03822b3212034b600660006101000a81548173ffffffffffffffffffffffffffffffffffffffff021916908373ffffffffffffffffffffffffffffffffffffffff1602179055503480156200006657600080fd5b50336000806101000a81548173ffffffffffffffffffffffffffffffffffffffff021916908373ffffffffffffffffffffffffffffffffffffffff1602179055506000600460006101000a81548160ff02191690836006811115620000f4577f4e487b7100000000000000000000000000000000000000000000000000000000600052602160045260246000fd5b0217905550600a60058190555062093a804262000112919062000126565b6008819055506064600981905550620001bc565b6000620001338262000183565b9150620001408362000183565b9250827fffffffffffffffffffffffffffffffffffffffffffffffffffffffffffffffff038211156200017857620001776200018d565b5b828201905092915050565b6000819050919050565b7f4e487b7100000000000000000000000000000000000000000000000000000000600052601160045260246000fd5b61160e80620001cc6000396000f3fe6080604052600436106101025760003560e01c80635bf8633a1161009557806378e979251161006457806378e97925146102fc57806392634916146103275780639b5b9b1814610352578063aa00810b1461037b578063f9fde9bd1461038557610111565b80635bf8633a146102715780636658e52b1461029c578063748807ab146102a6578063775e9fce146102d157610111565b80633d9b2ae6116100d15780633d9b2ae6146101e6578063439370b11461021157806344834aca1461021b578063499586111461024657610111565b80630e57df441461011657806312065fe014610153578063150b7a021461017e5780633197cbb6146101bb57610111565b366101115761010f6103a1565b005b600080fd5b34801561012257600080fd5b5061013d60048036038101906101389190611052565b61066c565b60405161014a91906112a3565b60405180910390f35b34801561015f57600080fd5b50610168610701565b6040516101759190611314565b60405180910390f35b34801561018a57600080fd5b506101a560048036038101906101a0919061108e565b610709565b6040516101b291906112be565b60405180910390f35b3480156101c757600080fd5b506101d061071e565b6040516101dd9190611314565b60405180910390f35b3480156101f257600080fd5b506101fb610724565b604051610208919061121a565b60405180910390f35b6102196103a1565b005b34801561022757600080fd5b50610230610748565b60405161023d919061121a565b60405180910390f35b34801561025257600080fd5b5061025b61076e565b60405161026891906112d9565b60405180910390f35b34801561027d57600080fd5b50610286610785565b60405161029391906111ff565b60405180910390f35b6102a46107ab565b005b3480156102b257600080fd5b506102bb6108cf565b6040516102c891906112d9565b60405180910390f35b3480156102dd57600080fd5b506102e66108e2565b6040516102f39190611314565b60405180910390f35b34801561030857600080fd5b506103116108e8565b60405161031e9190611314565b60405180910390f35b34801561033357600080fd5b5061033c6108ee565b6040516103499190611314565b60405180910390f35b34801561035e57600080fd5b506103796004803603810190610374919061110e565b6108f8565b005b610383610a87565b005b61039f600480360381019061039a919061110e565b610ca0565b005b30600260009054906101000a900473ffffffffffffffffffffffffffffffffffffffff1660008173ffffffffffffffffffffffffffffffffffffffff166370a08231846040518263ffffffff1660e01b815260040161040091906111ff565b60206040518083038186803b15801561041857600080fd5b505afa15801561042c573d6000803e3d6000fd5b505050506040513d601f19601f82011682018060405250810190610450919061114a565b1161045a57600080fd5b600954341461049e576040517f08c379a0000000000000000000000000000000000000000000000000000000008152600401610495906112f4565b60405180910390fd5b33600160006101000a81548173ffffffffffffffffffffffffffffffffffffffff021916908373ffffffffffffffffffffffffffffffffffffffff1602179055506003600460006101000a81548160ff0219169083600681111561052b577f4e487b7100000000000000000000000000000000000000000000000000000000600052602160045260246000fd5b021790555061055c30600260009054906101000a900473ffffffffffffffffffffffffffffffffffffffff1661066c565b1561066857600260009054906101000a900473ffffffffffffffffffffffffffffffffffffffff1673ffffffffffffffffffffffffffffffffffffffff166342842e0e30600160009054906101000a900473ffffffffffffffffffffffffffffffffffffffff166003546040518463ffffffff1660e01b81526004016105e493929190611235565b600060405180830381600087803b1580156105fe57600080fd5b505af1158015610612573d6000803e3d6000fd5b505050506005600460006101000a81548160ff02191690836006811115610662577f4e487b7100000000000000000000000000000000000000000000000000000000600052602160045260246000fd5b02179055505b5050565b6000808273ffffffffffffffffffffffffffffffffffffffff166370a08231856040518263ffffffff1660e01b81526004016106a891906111ff565b60206040518083038186803b1580156106c057600080fd5b505afa1580156106d4573d6000803e3d6000fd5b505050506040513d601f19601f820116820180604052508101906106f8919061114a565b11905092915050565b600047905090565b600063150b7a0260e01b905095945050505050565b60085481565b60008054906101000a900473ffffffffffffffffffffffffffffffffffffffff1681565b600160009054906101000a900473ffffffffffffffffffffffffffffffffffffffff1681565b6000600460009054906101000a900460ff16905090565b600260009054906101000a900473ffffffffffffffffffffffffffffffffffffffff1681565b60008054906101000a900473ffffffffffffffffffffffffffffffffffffffff1673ffffffffffffffffffffffffffffffffffffffff163373ffffffffffffffffffffffffffffffffffffffff161461080357600080fd5b6008544210158015610860575061085e600160009054906101000a900473ffffffffffffffffffffffffffffffffffffffff16600260009054906101000a900473ffffffffffffffffffffffffffffffffffffffff1661066c565b155b156108cd5760008054906101000a900473ffffffffffffffffffffffffffffffffffffffff1673ffffffffffffffffffffffffffffffffffffffff166108fc479081150290604051600060405180830381858888f193505050501580156108cb573d6000803e3d6000fd5b505b565b600460009054906101000a900460ff1681565b60095481565b60075481565b6000600954905090565b60008054906101000a900473ffffffffffffffffffffffffffffffffffffffff1673ffffffffffffffffffffffffffffffffffffffff163373ffffffffffffffffffffffffffffffffffffffff161461095057600080fd5b4260078190555081600260006101000a81548173ffffffffffffffffffffffffffffffffffffffff021916908373ffffffffffffffffffffffffffffffffffffffff16021790555080600381905550600260009054906101000a900473ffffffffffffffffffffffffffffffffffffffff1673ffffffffffffffffffffffffffffffffffffffff166342842e0e33306003546040518463ffffffff1660e01b8152600401610a009392919061126c565b600060405180830381600087803b158015610a1a57600080fd5b505af1158015610a2e573d6000803e3d6000fd5b505050506001600460006101000a81548160ff02191690836006811115610a7e577f4e487b7100000000000000000000000000000000000000000000000000000000600052602160045260246000fd5b02179055505050565b60008054906101000a900473ffffffffffffffffffffffffffffffffffffffff1673ffffffffffffffffffffffffffffffffffffffff163373ffffffffffffffffffffffffffffffffffffffff1614610adf57600080fd5b30600260009054906101000a900473ffffffffffffffffffffffffffffffffffffffff1660008173ffffffffffffffffffffffffffffffffffffffff166370a08231846040518263ffffffff1660e01b8152600401610b3e91906111ff565b60206040518083038186803b158015610b5657600080fd5b505afa158015610b6a573d6000803e3d6000fd5b505050506040513d601f19601f82011682018060405250810190610b8e919061114a565b11610b9857600080fd5b600260009054906101000a900473ffffffffffffffffffffffffffffffffffffffff1673ffffffffffffffffffffffffffffffffffffffff166342842e0e3060008054906101000a900473ffffffffffffffffffffffffffffffffffffffff166003546040518463ffffffff1660e01b8152600401610c1993929190611235565b600060405180830381600087803b158015610c3357600080fd5b505af1158015610c47573d6000803e3d6000fd5b505050506002600460006101000a81548160ff02191690836006811115610c97577f4e487b7100000000000000000000000000000000000000000000000000000000600052602160045260246000fd5b02179055505050565b600160009054906101000a900473ffffffffffffffffffffffffffffffffffffffff1673ffffffffffffffffffffffffffffffffffffffff163373ffffffffffffffffffffffffffffffffffffffff1614610cfa57600080fd5b81600260006101000a81548173ffffffffffffffffffffffffffffffffffffffff021916908373ffffffffffffffffffffffffffffffffffffffff16021790555080600381905550600260009054906101000a900473ffffffffffffffffffffffffffffffffffffffff1673ffffffffffffffffffffffffffffffffffffffff166342842e0e33306003546040518463ffffffff1660e01b8152600401610da39392919061126c565b600060405180830381600087803b158015610dbd57600080fd5b505af1158015610dd1573d6000803e3d6000fd5b5050505060004790506000606460055483610dec9190611371565b610df69190611340565b82610e0191906113cb565b90506000606460055484610e159190611371565b610e1f9190611340565b9050600160009054906101000a900473ffffffffffffffffffffffffffffffffffffffff1673ffffffffffffffffffffffffffffffffffffffff166108fc839081150290604051600060405180830381858888f19350505050158015610e89573d6000803e3d6000fd5b50600660009054906101000a900473ffffffffffffffffffffffffffffffffffffffff1673ffffffffffffffffffffffffffffffffffffffff166108fc600283610ed39190611340565b9081150290604051600060405180830381858888f19350505050158015610efe573d6000803e3d6000fd5b5060008054906101000a900473ffffffffffffffffffffffffffffffffffffffff1673ffffffffffffffffffffffffffffffffffffffff166108fc600283610f469190611340565b9081150290604051600060405180830381858888f19350505050158015610f71573d6000803e3d6000fd5b5060048060006101000a81548160ff02191690836006811115610fbd577f4e487b7100000000000000000000000000000000000000000000000000000000600052602160045260246000fd5b02179055505050505050565b600081359050610fd8816115aa565b92915050565b60008083601f840112610ff057600080fd5b8235905067ffffffffffffffff81111561100957600080fd5b60208301915083600182028301111561102157600080fd5b9250929050565b600081359050611037816115c1565b92915050565b60008151905061104c816115c1565b92915050565b6000806040838503121561106557600080fd5b600061107385828601610fc9565b925050602061108485828601610fc9565b9150509250929050565b6000806000806000608086880312156110a657600080fd5b60006110b488828901610fc9565b95505060206110c588828901610fc9565b94505060406110d688828901611028565b935050606086013567ffffffffffffffff8111156110f357600080fd5b6110ff88828901610fde565b92509250509295509295909350565b6000806040838503121561112157600080fd5b600061112f85828601610fc9565b925050602061114085828601611028565b9150509250929050565b60006020828403121561115c57600080fd5b600061116a8482850161103d565b91505092915050565b61117c81611498565b82525050565b61118b81611411565b82525050565b61119a816113ff565b82525050565b6111a981611423565b82525050565b6111b88161142f565b82525050565b6111c7816114aa565b82525050565b60006111da60128361132f565b91506111e58261156d565b602082019050919050565b6111f98161148e565b82525050565b60006020820190506112146000830184611191565b92915050565b600060208201905061122f6000830184611182565b92915050565b600060608201905061124a6000830186611191565b6112576020830185611173565b61126460408301846111f0565b949350505050565b60006060820190506112816000830186611191565b61128e6020830185611191565b61129b60408301846111f0565b949350505050565b60006020820190506112b860008301846111a0565b92915050565b60006020820190506112d360008301846111af565b92915050565b60006020820190506112ee60008301846111be565b92915050565b6000602082019050818103600083015261130d816111cd565b9050919050565b600060208201905061132960008301846111f0565b92915050565b600082825260208201905092915050565b600061134b8261148e565b91506113568361148e565b9250826113665761136561150f565b5b828204905092915050565b600061137c8261148e565b91506113878361148e565b9250817fffffffffffffffffffffffffffffffffffffffffffffffffffffffffffffffff04831182151516156113c0576113bf6114e0565b5b828202905092915050565b60006113d68261148e565b91506113e18361148e565b9250828210156113f4576113f36114e0565b5b828203905092915050565b600061140a8261146e565b9050919050565b600061141c8261146e565b9050919050565b60008115159050919050565b60007fffffffff0000000000000000000000000000000000000000000000000000000082169050919050565b600081905061146982611596565b919050565b600073ffffffffffffffffffffffffffffffffffffffff82169050919050565b6000819050919050565b60006114a3826114bc565b9050919050565b60006114b58261145b565b9050919050565b60006114c7826114ce565b9050919050565b60006114d98261146e565b9050919050565b7f4e487b7100000000000000000000000000000000000000000000000000000000600052601160045260246000fd5b7f4e487b7100000000000000000000000000000000000000000000000000000000600052601260045260246000fd5b7f4e487b7100000000000000000000000000000000000000000000000000000000600052602160045260246000fd5b7f596f75206f7765206d6f7265206d6f6e65790000000000000000000000000000600082015250565b600781106115a7576115a661153e565b5b50565b6115b3816113ff565b81146115be57600080fd5b50565b6115ca8161148e565b81146115d557600080fd5b5056fea2646970667358221220ce92e1be81795429e08a115495ad1f2cd51bfc0710c5593f26c465bc7305cefb64736f6c63430008040033",
  "linkReferences": {},
  "deployedLinkReferences": {}
}